:1000000065C100007FC100007DC100007BC1000010
:1000100079C1000077C1000075C1000073C1000004
:1000200071C100006FC100000C94700A0C94350A75
:1000300069C1000067C1000065C1000063C1000024
:1000400061C100005FC100005DC100005BC1000034
:1000500059C1000057C1000055C1000053C1000044
:1000600051C100004FC100004DC100004BC1000054
:1000700049C1000047C1000045C1000043C1000064
:1000800041C100003FC100003DC100003BC1000074
:1000900039C1000037C1000035C1000033C1000084
:1000A00031C100002FC100002DC100000D0A0A2A35
:1000B000204D6F6A6F204F53202A0D0A2863292094
:1000C000323032312C20522E2054726170700A006E
:1000D0000D0A3E2000203C2D203F000D0A41776193
:1000E0006974696E672064617461000D0A537563F9
:1000F000636573730D0A000D0A4641494C000D0AF1
:10010000436F6E66696720464C41534820697320EF
:10011000656D707479000D0A4E6F742061204D6911
:1001200063726F6368697020464C415348000D0A42
:10013000496E76616C69642062697473747265617A
:100140006D000D0A436F6D6D616E64733A0D0A2088
:10015000563A20566F6C6174696C6520436F6E6609
:1001600069670D0A20453A20457261736520464C47
:100170004153480D0A20573A20577269746520741C
:100180006F20464C4153480D0A20433A20436F6E7E
:100190006669672066726F6D20464C4153480D0AB0
:1001A00020693A20496E666F2061626F757420463F
:1001B0004C4153480D0A203F3A2048656C700D0AA7
:1001C000000D0A000D0A001201100102000008DDF6
:1001D00029018001000102030109023E0002010021
:1001E000C0FA090400000102020100052400100108
:1001F000042402060524060001070582030800FF07
:1002000009040100020A000000070504024000057D
:100210000705830240000504030904360345006D09
:100220000062006500640064006500640020004D09
:10023000006900630072006F002C0020005200650E
:10024000006E0065002000540072006100700070B4
:10025000000000620341006C0063006800690074E4
:10026000007200790020004D006F006A006F0020CE
:100270000056003300200043006F006E00660069E6
:10028000006700200054006F006F006C002C0020FD
:1002900000410054006D00650067006100330032CA
:1002A0000055003400200040002000380020004DA0
:1002B0000048007A00000006033000310000000012
:1002C000090FF00FF00FF00FF000000111241FBE16
:1002D000CFEFDAE0DEBFCDBF11E0A0E0B1E0E2E3B6
:1002E000FEE102C005900D92A032B107D9F711E0EE
:1002F000A0E2B1E001C01D92A034B107E1F753D4F0
:100300000C94170F7DCECF93DF93EC01EA81FB8134
:100310003191FB83EA838E819F81E817F90721F4ED
:100320008C819D819B838A832FB7F8948A859B85D6
:1003300001979B878A872FBF832FDF91CF910895E5
:10034000089510922E010895FC01208920FF04C019
:1003500081E080932E01089510922E010895FC01F2
:1003600084899589A689B789803BF4E09F07F0E0EE
:10037000AF07F0E0BF0739F080569940A040B04089
:1003800009F032C018C01092030810920208F4D786
:10039000F89487E797E790930108809300082CE092
:1003A00088E190E00FB6F894A895809360000FBEA6
:1003B00020936000FFCF84E392E190930308809341
:1003C000020858D4D9D7F894109201081092000866
:1003D0002CE088E190E00FB6F894A8958093600037
:1003E0000FBE20936000FFCF81E080932E0108951F
:1003F00080E091E00C94FB0D80E091E00C94D40D32
:10040000AF92BF92CF92DF92EF92FF920F931F9322
:10041000DF93CF93CDB7DEB7CC58D0400FB6F8946A
:10042000DEBF0FBECDBF02D6FE0131962FB7F894C6
:10043000CE010D96918380839383828395838483F9
:10044000CE0183579F4F9783868380E890E0918702
:100450008087138612862FBFDD24EE24FF245E01E1
:100460000894A11CB11CCC24CA9480E091E00E94A5
:10047000870D0E94AE0C80E091E00E94C30C69855C
:100480007A854FB7F8942B853C854FBF621B730B61
:100490008C016817790760F58B012AC080E091E034
:1004A0000E94F80CF501AF010190F081E02D8083EE
:1004B000DA018D919C911197019611969C938E93E0
:1004C00016962D913C9117978217930731F4149645
:1004D0008D919C9115978D939C932FB7F894FA0169
:1004E000828593850196938782872FBF01501040A4
:1004F0000115110599F6F3E0FF1558F082E0F816A2
:1005000008F074C0FF2071F0A1E0FA1609F0B7C03E
:1005100017C0B4E0FB1609F47FC0E5E0FE1609F051
:10052000AEC09AC02FB7F8948B859C852FBF892BBE
:1005300009F4A5C0C501E7DED82EFF24F3949FC0BF
:100540002FB7F8948B859C852FBF892B09F497C012
:10055000C501D9DEE82E80E091E06D2D0E949F0D4F
:1005600080E091E06E2D0E949F0DF7E5DF16A9F067
:10057000FD1540F083E2D816E1F0A2E5DA1609F0A5
:100580007DC013C0B2E7DB1661F0E7E7DE1609F0C5
:1005900075C0589832E0F32E72C0589A23E0F22EBC
:1005A0006EC0589894E0F92E6AC0589A85E0F82EEB
:1005B00066C0F2E5EF1609F061C05CD384E392E116
:1005C0009093030880930208C457DF4F0FB6F89446
:1005D000DEBF0FBECDBFCF91DF911F910F91FF9076
:1005E000EF90DF90CF90BF90AF9008955A98C4B825
:1005F0002FB7F8948B859C852FBF029750F109C0C7
:10060000C50181DE85B95B9AC5017DDE85B95B9840
:10061000EA94EE20A9F732C08FB7F8940B851C85B9
:100620008FBF11C05A98C4B8C5016DDE85B95B9AF9
:1006300014B85A9A5B9863B180E091E00E949F0DD4
:1006400001501040EA940115110519F0EE2051F700
:1006500015C0EE20A1F412C014B85A9A0DC063B1AF
:1006600080E091E00E949F0D5B9A63B180E091E091
:100670000E949F0D5B98EA94EE2089F7FF2480E0AA
:1006800091E00E94530DF1CE60E271E00C94D20E25
:100690002F923F924F925F926F927F928F929F9292
:1006A000AF92BF92CF92DF92EF92FF920F931F9380
:1006B000DF93CF93CDB7DEB7CB50D7400FB6F894CA
:1006C000DEBF0FBECDBF8091020890910308845316
:1006D000924139F49924C75FD84F1882C950D74046
:1006E00008C055E0952E83E7C75FD84F8883C9506F
:1006F000D740AA24BB246501442455243201882410
:10070000DE011196C65FD84FB983A883CA50D7407F
:1007100001C0992480E091E00E94870D0E94AE0CF8
:10072000B5E09B1609F4D7C0B915A0F0E2E09E161B
:1007300009F447C0E91530F0992011F1F1E09F1656
:1007400049F73CC023E0921609F45DC084E0981696
:1007500009F75CC098E0991609F47CC1991540F03E
:10076000A6E09A1609F4BDC0B7E09B1699F624C11D
:10077000E9E09E1609F491C1FAE09F1659F6E1C12D
:1007800080E091E00E94C30C892B39F080E091E079
:100790000E94F80C21E020932E0180912E018823E5
:1007A00051F0882019F043E0942E05C08CEA90E0C7
:1007B0006BDF9924939480902E01ACCF82E491E07A
:1007C00063DF1CD38F3B19F086E191E05DDFCE0142
:1007D000019640E050E060E070E028E037E01BD395
:1007E000CE01019661E67DD28C01009749F084EC40
:1007F00091E04ADFC80160E271E00E94AA0E03C0E6
:100800008EEF90E041DF80ED90E03EDF80E091E010
:100810000E94C30C813011F0182F58C080E091E085
:100820000E94F80C182F80E091E0612F0E949F0D2C
:10083000133449F1143448F41D3009F46ACF1F33DE
:1008400081F01A3009F03AC064CF163581F01735BF
:1008500018F4153499F530C0173509F1193671F5CA
:1008600003C09924939456CF32E0932E53CF8BED4F
:1008700090E00ADF25E0922E85E7C75FD84F888396
:10088000C950D74047CF81EC91E0FEDE95E0992E2C
:1008900093E7C75FD84F9883C950D7403BCFF0D27A
:1008A0008BED90E0F1DE89E0982EAA24BB2465014F
:1008B0004424552432012ECFE3D22BCF85ED90E096
:1008C0003EC180E091E00E94F80C11501123C9F75D
:1008D00004E0902E1FCFAA24BB2465014424552494
:1008E0003201C75FD84FA881C950D740A33719F14B
:1008F000A53711F0992430C080E091E00E94C30C2C
:100900001C0111E0E12EF12CEC0EFD1EEA0CFB1C8B
:1009100000E010E009C080E091E00E94F80CF701CF
:1009200081937F010F5F1F4F02151305A0F3C101D3
:10093000A0E0B0E00BC0CE010196B601A50128E011
:1009400037E069D288E097E0A0E0B0E0A80EB91ED9
:10095000CA1EDB1EB6E09B2E99ECA91696E0B906DE
:1009600090E0C90690E0D90608F4D4CECE010196F5
:1009700065E6B7D18C01009709F4DFC0E6D12B0101
:100980003C01A4E0EA2EF12CE00EF11E01E010E0A3
:100990000C0F1D1F0A0D1B1D0E191F09C801A0E019
:1009A000B0E0481A590A6A0A7B0A64D1C701B80143
:1009B0006BD1F7E09F2EAECEC75FD84FA881C9504C
:1009C000D740A537B1F480E091E0DDD77C018E01FE
:1009D0000F5F1F4F1801280E391E07C080E091E0FD
:1009E0000E94F80CF80181938F0102151305B1F7ED
:1009F00013C0CE010196B601A50128E037E00BD265
:100A000088E097E0A0E0B0E0A80EB91ECA1EDB1E89
:100A1000E8E0EE2EE7E0FE2EC701A0E0B0E04816C9
:100A200059066A067B0628F47201442455243201D3
:100A300004C0481A590A6A0A7B0ACE010196B70116
:100A400023D1411451046104710409F063CE78E0AC
:100A5000972E60CE28D18823E9F48BEE90E014DE47
:100A6000C55FD84F0FB6F894DEBF0FBECDBFCF9194
:100A7000DF911F910F91FF90EF90DF90CF90BF908B
:100A8000AF909F908F907F906F905F904F903F902E
:100A90002F90089587EF90E052C080E091E073D7E7
:100AA0001C0161E0E62EF12CEC0EFD1EEA0CFB1C95
:100AB00000E010E008C080E091E09AD7D7018D9364
:100AC0007D010F5F1F4F02151305A8F3C101A0E0C0
:100AD000B0E0A80EB91ECA1EDB1EB9ECAB16B6E01C
:100AE000BB06B0E0CB06B0E0DB0608F413CECE01C7
:100AF000019665E6F6D08C010097F9F026D12B011E
:100B00003C01C65FD84FE881F981CA50D7400E1B1F
:100B10001F0BC801AA2797FDA095BA2F480E591E92
:100B20006A1E7B1ECE01019640E050E060E070E05E
:100B30009501BBD15AE0952EEDCD8EE291E0A4DD7A
:100B4000E8CD80E091E01FD77C010097E9F08E01AD
:100B50000F5F1F4F1801280E391E06C080E091E07C
:100B600047D7D8018D938D0102151305B9F7CE0132
:100B70000196B601A501970198D1C701A0E0B0E0A8
:100B8000A80EB91ECA1EDB1EA414B504C604D704E1
:100B900008F4C0CD45E0942EB3E7C75FD84FB883C3
:100BA000C950D740B7CD84B7877F84BF88E10FB6DF
:100BB000F89480936000109260000FBE80E090E097
:100BC00020E80FB6F89420936100809361000FBE77
:100BD0002DD245D010D110922E0180E091E060E23C
:100BE00071E042D725D4789479D0882311F450DD70
:100BF000FBCF06DCF9CFDA01923049F0933061F097
:100C0000913029F5E7ECF1E022E130E024C0E9ED94
:100C1000F1E02EE330E01FC0813059F0813028F040
:100C2000823059F0833099F40CC0E7E1F2E084910E
:100C30000BC0EBE1F2E0849107C0E3E5F2E08491C0
:100C400003C0E7EBF2E08491282F30E004C0E0E03D
:100C5000F0E020E030E0ED93FC93C9010895479A5D
:100C60003F9A3E98469A5098589855985D9814B86F
:100C700015B80895479882E08A95F1F75898509AE8
:100C8000479A4D9BFECF0895FC018FEF84B99B01DD
:100C900006C0819185B9589A589821503040211545
:100CA0003105B9F7089514B88FEF85B988E08A95B2
:100CB000F1F780E197E204C0589A5898019711F033
:100CC000369BFACF369902C08FEF089588E0589A84
:100CD00058988150E1F7C3DF80E0089586B18074B1
:100CE0000895CF93DF93EC012FEB32E0F90194915B
:100CF0008881891721F521962F5F3F4FF2E02C3C28
:100D00003F07A1F746E0DE0111968881861729F496
:100D10006536B9F0DE01139614C05981CD010196F4
:100D200011967C91415059F0352F20E0EC0121962D
:100D3000872F90E0822B932BC80FD91FE4CFA0E020
:100D4000B0E0CD01DF91CF910895FC0110922F0109
:100D50001092300110923101109232010097F9F097
:100D600064E0219130E040E050E080912F019091CB
:100D70003001A0913101B0913201BA2FA92F982FE3
:100D80008827282B392B4A2B5B2B20932F0130935C
:100D900030014093310150933201615011F760915D
:100DA0002F017091300180913101909132010895AD
:100DB000289A87E084B980E58CBD81E08DBD0895D7
:100DC000599A14B81CBC08958EBD0DB407FEFDCF12
:100DD0008EB50895599885E0F7DF80E0F5DF80FD56
:100DE000FCCF599A0895599882E08A95F1F71B9B98
:100DF000FECF599A0895599A519A08951F93D8DFB2
:100E000059988FE9E1DF80E0DFDF182F599AD8DFAA
:100E1000812F1F910895CF92DF92EF92FF920F934F
:100E20001F93CF93DF93EC017A018B01D22EC32E57
:100E3000BFDF599883E0C8DFC801AA27BB27C4DFFA
:100E4000BB27A12F902F8F2DBFDF8E2DBDDF2D2D26
:100E50003C2DC9016C0106C080E0B6DF899308947F
:100E6000C108D108C114D104B9F7599AA9DFDF919B
:100E7000CF911F910F91FF90EF90DF90CF90089549
:100E800097DF599886E0A0DF599A599881E09CDF56
:100E900080E09ADF599A599886E096DF599A5998D6
:100EA00080E692DF599A96DF8BCF8F929F92AF9216
:100EB000BF92CF92DF92EF92FF920F931F93CF9347
:100EC000DF93EC017A018B0159012115310509F4F9
:100ED000A0C06EDFC70181709070892BF1F0599826
:100EE00086E072DF599A599882E06EDFC801AA271E
:100EF000BB276ADFBB27A12F902F8F2D65DF8E2D9B
:100F000063DF899161DF599A0894E11CF11C011D8E
:100F1000111D0894A108B1085DDF82E0A816B10494
:100F200008F45EC0599880E74FDF599A599886E0D7
:100F30004BDF599A59988DEA47DFC801AA27BB278A
:100F400043DFBB27A12F902F8F2D3EDF8E2D3CDF5F
:100F500088813ADF21964E010894811C911C2197CB
:100F6000898132DF599A3FDF650109C059988DEABE
:100F70002BDF888129DF898127DF599A34DFAEEFA3
:100F8000BFEFCA0EDB1E2296B2E0CB16D10470F77B
:100F9000C50102979C0136952795B901660F771F09
:100FA0005C01A61AB70A82E090E0A0E0B0E0E80E8B
:100FB000F91E0A1F1B1F40E050E0220F331F441F81
:100FC000551FE20EF31E041F151FE401C60FD71FA5
:100FD000599884E0F9DE599A599880E8F5DE599AD3
:100FE000AB28B1F0599886E0EFDE599A599882E023
:100FF000EBDEC801AA27BB27E7DEBB27A12F902F76
:101000008F2DE2DE8E2DE0DE8881DEDE599AE2DE73
:10101000D7DEDF91CF911F910F91FF90EF90DF907E
:10102000CF90BF90AF909F908F9008955A98529A0A
:1010300015B88FEF84B95B98539A5898509A0895D1
:101040009C0140913E0150913F014617570718F40B
:10105000F90190E043C06115710511F0AB01F8CFC3
:101060008091E8008E778093E80040E050E0F0CF78
:1010700080913701882309F447C0853009F446C0C0
:101080008091E80083FD44C08091E80082FD36C075
:101090008091E80080FF22C08091F3009091F200DF
:1010A000782F60E0292F30E0262B372B07C0819165
:1010B0008093F100415050402F5F3F4F4115510543
:1010C00019F02830310598F390E02830310509F403
:1010D00091E08091E8008E778093E80041155105FA
:1010E00039F6992329F60AC080913701882361F0E7
:1010F000853061F08091E80083FD0AC08091E800AE
:1011000082FFF2CF80E0089582E0089583E00895A1
:1011100081E008959C0140913E0150913F014617A6
:10112000570718F4F90190E044C06115710511F0FA
:10113000AB01F8CF8091E8008E778093E80040E023
:1011400050E0F0CF80913701882309F448C0853002
:1011500009F447C08091E80083FD45C08091E80014
:1011600082FD37C08091E80080FF23C08091F300AA
:101170009091F200782F60E0292F30E0262B372B5A
:1011800008C084918093F1003196415050402F5F08
:101190003F4F4115510519F02830310590F390E08B
:1011A0002830310509F491E08091E8008E77809332
:1011B000E8004115510531F6992321F60AC08091C6
:1011C0003701882361F0853061F08091E80083FD6C
:1011D0000AC08091E80082FFF2CF80E0089582E0AB
:1011E000089583E0089581E00895382F282F2EC0B8
:1011F000822F8F708093E900231721F4762F942F8C
:1012000050E006C07091EC009091ED005091F0001C
:1012100091FF1BC08091EB008E7F8093EB0080914B
:10122000ED008D7F8093ED008091EB0081608093D5
:10123000EB007093EC009093ED005093F0008091E0
:10124000EE0087FD02C080E008952F5F273080F216
:101250003F703093E90081E008950F931F93CF937F
:10126000DF93062FEC0110E02AC09881992329F121
:101270006B81E981FA812C81892F8F70873018F575
:10128000223010F452E001C056E040E028E030E0A7
:1012900003C04F5F220F331F2E173F07D0F3629515
:1012A000660F660F607C991F9927991F692B4295DD
:1012B000407F452B9ADF882331F01F5F259610175A
:1012C000A0F281E001C080E0DF91CF911F910F91EA
:1012D00008958091380188239CF404C080913701DF
:1012E0008823B9F08091E80082FFF8CF8091E80070
:1012F0008B778093E800089580913701882349F027
:101300008091E80080FFF8CF8091E8008E7780938D
:10131000E80008954091E4005091E50024E68091B2
:10132000EC0080FF24C08091E80080FD1EC0809109
:101330003701882311F482E00895853011F483E0A9
:1013400008958091EB0085FF02C081E008958091AF
:10135000E4009091E5008417950709F3222311F426
:1013600084E008952150AC01DACF80E008958091A7
:10137000E80082FFDCCFF9CF6BD072D0E0EEF0E076
:10138000808181608083A8EDB0E08C918F778C9311
:1013900019BCE7EDF0E080818E7F80838C918F7E99
:1013A0008C93109236010895EF92FF920F931F9342
:1013B0004FD056D008ED10E0F80180818F77808300
:1013C00080818068808380818F7D808319BC1092AA
:1013D000370110923301109235011092340180EEE2
:1013E000E82EF12CF70180818B7F8083F8018081CA
:1013F0008160808380E060E042E0F7DEE1EEF0E0D3
:1014000080818E7F8083E2EEF0E080818160808346
:10141000808188608083F70180818E7F8083F801DE
:101420008081806180831F910F91FF90EF900895DC
:10143000E8EDF0E080818F7E8083E7EDF0E0808151
:101440008160808384E082BF81E080933601ACCFED
:10145000E8EDF0E080818E7F80831092E2000895B5
:101460001092DA001092E10008951F920F920FB6C9
:101470000F9211241F932F933F934F935F936F937A
:101480007F938F939F93AF93BF93EF93FF931091AD
:10149000E9008091EC001092E9008091F000877FD4
:1014A0008093F0007894E7D01092E9008091F000EA
:1014B00088608093F0001F701093E900FF91EF9116
:1014C000BF91AF919F918F917F916F915F914F915C
:1014D0003F912F911F910F900FBE0F901F90189565
:1014E0001F920F920FB60F9211242F933F934F9399
:1014F0005F936F937F938F939F93AF93BF93EF937C
:10150000FF938091E10082FF0AC08091E20082FF98
:1015100006C08091E1008B7F8093E1001ED2809114
:10152000DA0080FF1EC08091D80080FF1AC0809131
:10153000DA008E7F8093DA008091D90080FF0CC0A2
:1015400019BC82E089BD09B400FEFDCF81E0809323
:1015500037010E94A00105C019BC109237010E94FA
:10156000A1018091E10080FF18C08091E20080FF1E
:1015700014C08091E2008E7F8093E2008091E200AF
:1015800080618093E2008091D80080628093D800CF
:1015900019BC85E080933701E0D18091E10084FFA0
:1015A0002EC08091E20084FF2AC019BC82E089BD70
:1015B00009B400FEFDCF8091D8008F7D8093D800C4
:1015C0008091E1008F7E8093E1008091E2008F7E28
:1015D0008093E2008091E20081608093E20080913C
:1015E0003301882311F084E007C08091E30087FD78
:1015F00002C081E001C083E080933701AED18091C9
:10160000E10083FF27C08091E20083FF23C0809127
:10161000E100877F8093E10082E0809337011092A0
:1016200033018091E1008E7F8093E1008091E200A0
:101630008E7F8093E2008091E20080618093E200DF
:1016400080E060E042E0D1DD8091F000886080932E
:10165000F00083D1FF91EF91BF91AF919F918F9156
:101660007F916F915F914F913F912F910F900FBE9E
:101670000F901F9018951F93DF93CF93CDB7DEB7D0
:10168000AC970FB6F894DEBF0FBECDBFE8E3F1E034
:101690008091F100819321E0E034F207C9F70E94C4
:1016A000F8018091E80083FF40C1809138013091BA
:1016B0003901353009F48DC0363040F43130E1F174
:1016C000313070F0333009F030C136C0383009F4B1
:1016D000FDC0393009F40CC1363009F026C19CC078
:1016E000803821F0823809F020C108C0909134017F
:1016F000809135018823B1F0926014C080913C0143
:101700008F70873008F011C18093E9008091EB0061
:1017100090E025E0969587952A95E1F7982F9170AE
:101720001092E9008091E800877F8093E800909311
:10173000F1001092F100D5C0882319F0823009F031
:10174000F4C090E08F719070009721F0029709F03B
:10175000ECC00CC080913A01813009F0E6C01092D3
:101760003501333081F5809335012DC080913A01E8
:10177000882349F520913C012F70822F81508630BB
:1017800008F0D3C02093E9008091EB0080FF1BC0DC
:10179000333021F48091EB00806213C08091EB0024
:1017A00080618093EB0081E090E002C0880F991F78
:1017B0002A95E2F78093EA001092EA008091EB000C
:1017C00088608093EB001092E9008091E800877FA9
:1017D0008BC0882309F0A9C010913A011F7780912E
:1017E000E3008078812B8093E3008091E800877F7D
:1017F0008093E8006EDD8091E80080FFFCCF80914F
:10180000E30080688093E300112311F482E001C0BB
:1018100083E08093370189C08058823008F085C00A
:1018200080913A0190913B0123E08C3D920709F0B1
:1018300033C083E08C838AE28B837FB7F894DE0128
:1018400015966EE040E050E011E2E62FF0E01093D4
:101850005700849140FF03C082958F706F5F8F7037
:10186000282F30E08A3018F0C901C79602C0C9019C
:10187000C0968D939D934F5F5F4F4431510529F77B
:101880007FBF8091E800877F8093E800CE010396B8
:101890006AE270E0D5DB14C060913C0170913D01BB
:1018A000AE014F5F5F4FA7D9BC01009709F43DC05F
:1018B0008091E800877F8093E80089819A812ADC03
:1018C0008091E8008B778093E8002FC0803869F51D
:1018D0008091E800877F8093E800809133018093B6
:1018E000F1008091E8008E778093E800F2DC1DC063
:1018F0008823D9F490913A019230B8F48091E800AD
:10190000877F8093E80090933301E3DC809133017B
:10191000882331F48091E30087FD02C081E001C09B
:1019200084E0809337010E94FC018091E80083FFEE
:101930000AC08091E800877F8093E8008091EB00E7
:1019400080628093EB00AC960FB6F894DEBF0FBEBA
:10195000CDBFCF91DF911F91089508951F9380917E
:101960003701882371F01091E9008091EC0010920A
:10197000E9008091E80083FF01C07DDE1F701093B5
:10198000E9001F910895FC0180913701843061F5D1
:1019900084899589A689B7890097A105B10521F1A8
:1019A00086818F708093E9008091E80082FF1CC0DF
:1019B0004091F3002091F200942F80E030E0822BE0
:1019C000932B892B31F48091E8008B778093E8008A
:1019D0000BC08091F3009091F200382F20E0492F46
:1019E00050E0422B532B02C040E050E0CA01089562
:1019F000FC0180913701843099F584899589A68905
:101A0000B7890097A105B10559F186818F70809340
:101A1000E9008091E80082FF23C04091F30020910B
:101A2000F200942F80E030E0822B932B892B19F465
:101A30006FEF7FEF04C08091F100682F70E040915C
:101A4000F3002091F200942F80E030E0822B932B62
:101A5000892B41F48091E8008B778093E80002C0E5
:101A60006FEF7FEFCB010895FB012EE0DB011D92AC
:101A70002A95E9F723E0238325EC3DE03187208791
:101A800027E43DE033872287958784870895FC010A
:101A900084859585ADDF9C0197FF02C02EEF3FEF57
:101AA000C90108950895FC0180913701843051F5F2
:101AB00084899589A689B7890097A105B10511F197
:101AC00081818F708093E9004091F3002091F200B2
:101AD000942F80E030E0822B932B892BA9F09091FA
:101AE000E8008091E8008E778093E80095FD0CC0B7
:101AF00011DC982F882349F48091E8008E77809339
:101B0000E80003C092E001C090E0892F0895FC0135
:101B100080913701843091F484899589A689B789A9
:101B20000097A105B10551F081818F708093E90084
:101B30008091E80080FF02C0CF01B5CF08951F93C8
:101B4000FC01162F809137018430E1F48489958956
:101B5000A689B7890097A105B105A1F081818F7091
:101B60008093E9008091E80085FD08C08091E8003D
:101B70008E778093E800CEDB882329F41093F10060
:101B800080E001C082E01F910895282FFB01848529
:101B90009585622FD4DF882319F420E030E002C05D
:101BA0002FEF3FEFC9010895CF93DF93EC014096EB
:101BB000FC018BE0DF011D928A95E9F782E08C83BE
:101BC000898783E08E87CE01019661E046DB88231A
:101BD00071F0CE01069661E040DB882341F0CE0132
:101BE0000B9661E03ADB882319F081E001C080E0C8
:101BF000DF91CF910895CF93DF93EC018091E800BE
:101C000083FFA5C0888190E020913C0130913D0187
:101C10002817390709F09BC080913901813269F09A
:101C2000823220F4803209F092C03CC0823209F442
:101C30006CC0833209F08BC07CC080913801813A3E
:101C400009F085C08091E800877F8093E80080914B
:101C5000E80080FFFCCF8C899D89AE89BF89809385
:101C6000F100292F3A2F4B2F55272093F1009D018A
:101C7000442755272093F1008B2F9927AA27BB27AC
:101C80008093F100888D8093F100898D8093F1001D
:101C90008A8D8093F1008091E8008E778093E80030
:101CA00018DB55C080913801813209F050C0809115
:101CB000E800877F8093E80005C080913701882382
:101CC00009F445C08091E80082FFF7CF8091F100D0
:101CD0009091F1002091F1003091F1008C8B9D8B5F
:101CE0002E8B3F8B8091F100888F8091F100898F3E
:101CF0008091F1008A8F8091E8008B778093E800D3
:101D0000E8DACE010E94AF0122C080913801813211
:101D1000F1F48091E800877F8093E800DADA80911F
:101D20003A0190913B01998B888BCE010E94A401CE
:101D30000EC080913801813251F48091E800877F94
:101D40008093E800C6DACE0160913A01ABDEDF9104
:101D5000CF910895EF92FF920F931F93CF93DF934C
:101D60007C018B01DB0113968C9181FD03C0CFEFC9
:101D7000DFEF13C0C0E0D0E00BC0D8011896ED91A2
:101D8000FC911997B8010995892B11F0CFEFDFEF7E
:101D9000F70181917F01882381F7CE01CDB7DEB7AE
:101DA000E6E036C0EF92FF920F931F93CF93DF933D
:101DB0007C018B01DB0113968C9181FD03C0CFEF79
:101DC000DFEF15C0C0E0D0E00EC0D8011896ED914D
:101DD000FC911997B8010995892B11F0CFEFDFEF2E
:101DE0000894E11CF11CF7018491882371F7CE015E
:101DF000CDB7DEB7E6E00CC02A88398848885F8412
:101E00006E847D848C849B84AA84B984C884DF809A
:101E1000EE80FD800C811B81AA81B981CE0FD11D7E
:101E20000FB6F894DEBF0FBECDBFED010895F89454
:021E3000FFCFE2
:101E3200008340000001044000000182080000010C
:101E4200000000000000000000000000080208007E
:00000001FF
