:100000006AC1000084C1000082C1000080C10000FC
:100010007EC100007CC100007AC1000078C10000F0
:1000200076C1000074C1000067C700002AC7000045
:100030006EC100006CC100006AC1000068C1000010
:1000400066C1000064C1000062C1000060C1000020
:100050005EC100005CC100005AC1000058C1000030
:1000600056C1000054C1000052C1000050C1000040
:100070004EC100004CC100004AC1000048C1000050
:1000800046C1000044C1000042C1000040C1000060
:100090003EC100003CC100003AC1000038C1000070
:1000A00036C1000034C1000032C100000D0A0A0A46
:1000B0002A205370617274616E20436F6E666967A7
:1000C000757261746F72202A0A0D286329203230FC
:1000D00032312C2052656EE92054726170700A0032
:1000E0000D0A3E2000203C2D3F000D0A465047419E
:1000F00020636F6E66696775726174696F6E2072D6
:10010000656164792C206177616974696E6720622A
:10011000697473747265616D20282E626974292078
:1001200066696C652E0D0A000D0A2A2A2046504782
:1001300041207375636365737366756C6C792063B6
:100140006F6E666967757265642E202A2A000D0A33
:100150002A2A204650474120636F6E666967757290
:100160006174696F6E206661696C656421202A2A5A
:10017000000D0A416363657074656420636F6D6D83
:10018000616E64733A0D0A20563A20566F6C6174A2
:10019000696C65205553422D436F6E6669677572B1
:1001A0006174696F6E0D0A203F3A205468697320AC
:1001B000276D616E70616765270A000D0A2A2A2083
:1001C0004E6F742061204D6963726F63686970209F
:1001D0005350492D464C41534821202A2A001201F0
:1001E000100102000008DD29018001000102030165
:1001F00009023E00020100C0FA09040000010202E7
:100200000100052400100104240206052406000153
:10021000070582030800FF09040100020A0000002C
:10022000070504024000050705830240000504039A
:100230000904360345006D00620065006400640037
:100240006500640020004D006900630072006F00CB
:100250002C002000520065006E0065002000540054
:1002600072006100700070000000620341006C00C9
:1002700063006800690074007200790020004D007E
:100280006F006A006F00200056003300200043001A
:100290006F006E00660069006700200054006F0068
:1002A0006F006C002C002000410054006D006500C0
:1002B0006700610033003200550034002000400028
:1002C0002000380020004D0048007A00000006039E
:1002D00030003100000011241FBECFEFDAE0DEBF96
:1002E000CDBF11E0A0E0B1E0E8E2FDE102C0059081
:1002F0000D92AA32B107D9F711E0AAE2B1E001C02C
:100300001D92AB39B107E1F750D00C94920E78CE24
:1003100081E080933B01089510923B010895089578
:10032000FC0184899589A689B789803BF4E09F0701
:10033000F0E0AF07F0E0BF0731F080569940A040F1
:10034000B04051F514C024D5F89487E797E790930F
:100350000108809300082CE088E190E00FB6F89443
:10036000A895809360000FBE20936000FFCFC4D19A
:100370000FD5F89488E898E89093010880930008D6
:100380002CE088E190E00FB6F894A8958093600087
:100390000FBE20936000FFCF08958EE091E00C9493
:1003A000030B8EE091E00C94DC0A6F927F928F92A7
:1003B0009F92AF92BF92CF92DF92EF92FF920F93F4
:1003C0001F93CF93DF9384B7877F84BF88E10FB6F5
:1003D000F89480936000109260000FBE80E090E07F
:1003E00020E80FB6F89420936100809361000FBE5F
:1003F00050D11FD310923B018EE091E06AE271E090
:100400000E943C0A21D5789462E0962E01E05AE2DF
:10041000E52E51E0F52E44E0742E33E0632E25E006
:10042000822E90E0A92E91E0B92E88E0C82E81E0BE
:10043000D82E8EE091E0AFD790933A0180933901A6
:10044000892B91F010E007C08EE091E0D9D7C45C11
:10045000DE4F88831F5FC12FD0E0809139019091DA
:100460003A01C817D90780F380913B01823059F1D6
:10047000833030F4882369F0813009F0D1C00EC098
:10048000843009F455C0843030F1853009F0C8C09B
:1004900059C093D2882309F0C3C03DC08CEA90E0D4
:1004A0006AE271E00E94C30B81E791E06AE271E0C9
:1004B0000E94C30BC4D28F3B31F08BEB91E06AE218
:1004C00071E00E94C30B80EE90E06AE271E00E944E
:1004D000C30B60923B018091390190913A010197E1
:1004E00009F09EC090923B018EE091E060913C014A
:1004F0000E94A70A80913C018F3369F0803430F468
:100500008A3009F48DC08D3061F48AC0863531F0AF
:10051000893639F485C000933B0182C070923B015B
:100520007FC085EE90E06AE271E00E94C30B78C064
:10053000BDD08AEE90E06AE271E00E94C30B809227
:100540003B016EC06091390170913A018CE391E0FA
:10055000DCD0833009F453C08F3F09F459C0813097
:1005600009F05EC08091390190913A01892B09F41C
:1005700057C026D22DB73EB7285030400FB6F8945A
:100580003EBF0FBE2DBFEDB7FEB73196ADB7BEB7BC
:100590001296FC92EE921197B382A28264837583C5
:1005A000868397830E94B20B2DB73EB7285F3F4FDB
:1005B0000FB6F8943EBF0FBE2DBF16D2ADB7BEB773
:1005C00018970FB6F894BEBF0FBEADBFEDB7FEB71C
:1005D00031961296FC92EE921197D382C282648376
:1005E0007583868397830E94B20B2DB73EB7285F31
:1005F0003F4F0FB6F8943EBF0FBE2DBF11C088E22B
:1006000091E06AE271E00E94C30B10923B0108C0C6
:100610008EE491E06AE271E00E94C30B90923B018C
:100620008EE091E07CD7A2D604CFDA01923049F077
:10063000933061F0913029F5EEEDF1E022E130E008
:1006400024C0E0EFF1E02EE330E01FC0813059F02C
:10065000813028F0823059F0833099F40CC0EEE2FA
:10066000F2E084910BC0E2E3F2E0849107C0EAE695
:10067000F2E0849103C0EEECF2E08491282F30E0A8
:1006800004C0E0E0F0E020E030E0ED93FC93C9012D
:1006900008953F98479A3E9846985098589855988C
:1006A0005D9814B815B810928B01089510928701C7
:1006B000109288011092890110928A011092830190
:1006C00010928401109285011092860110928D0182
:1006D00010928C01109282011092810110927D0182
:1006E00010927E0110927F011092800181E0809330
:1006F0008B0110927C01089547983F9A55985D9A16
:100700005898509A3F98479A08959F92AF92BF92F7
:10071000CF92DF92EF92FF920F931F93CF93DF93CD
:100720008C01E62ED72E63E6F62E52E0A52E43E08E
:10073000B42ECC24C39499249A9480918B01823056
:1007400009F4BCC0833030F4882351F0813009F0C3
:1007500023C10EC0833041F0843009F01DC102C0B6
:1007600080E01FC184E6FCC08E2D9D2D9C01D1C070
:100770008E2D9D2D9C01E90198C0F801208180916A
:10078000870190918801A0918901B0918A01BA2FC7
:10079000A92F982F8827422F50E060E070E0482B67
:1007A000592B6A2B7B2B40938701509388016093D0
:1007B000890170938A01E0918C01F0918D0131964D
:1007C000F0938D01E0938C01E230F10551F45093E8
:1007D00082014093810183E0493E580710F0F09276
:1007E0008B0180917C01813059F1813038F0823069
:1007F00009F437C0833009F053C040C0E630F1053A
:1008000099F0E730F10520F4329709F04BC007C0AA
:10081000EA30F10549F03D9709F044C00BC049307A
:10082000510509F03DC03EC0405F5F40604F7F40D2
:10083000B9F538C0415050406040704F89F51BC039
:1008400010928D0110928C01213650F1253618F04E
:10085000253631F503C0A0927C0124C0B0927C0102
:1008600021C080918101909182010296E817F907D9
:10087000C9F42223A9F4C0927C0114C0349791F4E6
:1008800040937D0150937E0160937F0170938001BE
:10089000411551056105710519F0A0928B0102C047
:1008A000F0928B010F5F1F4F2197209709F478C0BA
:1008B00080918B01813009F460CF3FCF1DDF4D9BCC
:1008C000FECF94B880917D0190917E01A0917F012F
:1008D000B09180018093830190938401A09385015E
:1008E000B0938601B0928B0128CFF80181918F01DE
:1008F00085B9589A41505040604070404093830100
:10090000509384016093850170938601589821501B
:1009100030402115310569F04091830150918401E7
:100920006091850170918601411551056105710540
:10093000E1F68091830190918401A0918501B091AD
:1009400086010097A105B10559F514B88FEF85B957
:100950001092380184E01CC0589A5898815011F0C8
:10096000369BFACF369B0CC088E0589A5898815035
:10097000E1F750985D9815B810928B0183E011C093
:10098000809138018F5F80933801853618F083E6B7
:1009900080938B0182E005C010928B018FEF01C024
:1009A00081E0DF91CF911F910F91FF90EF90DF9049
:1009B000CF90BF90AF909F90089586B180740895B6
:1009C00080918B01833029F020E030E040E050E05E
:1009D00008C020918301309184014091850150919C
:1009E0008601B901CA01089580918B01833029F0F5
:1009F00020E030E040E050E008C020917D013091DF
:100A00007E0140917F0150918001B901CA01089592
:100A100087E084B981E58CBD81E08DBD0895599A48
:100A200014B81CBC08958EBD0DB407FEFDCF8EB565
:100A30000895599A519A14B88FEF85B908951F9364
:100A4000E7DF59988FE9EFDF80E0EDDF182F599A43
:100A5000E6DF812F1F9108959C01409199015091EB
:100A60009A014617570718F4F90190E043C0611541
:100A7000710511F0AB01F8CF8091E8008E7780937B
:100A8000E80040E050E0F0CF80919201882309F423
:100A900047C0853009F446C08091E80083FD44C01A
:100AA0008091E80082FD36C08091E80080FF22C07E
:100AB0008091F3009091F200782F60E0292F30E0D0
:100AC000262B372B07C081918093F1004150504075
:100AD0002F5F3F4F4115510519F02830310598F32C
:100AE00090E02830310509F491E08091E8008E779C
:100AF0008093E8004115510539F6992329F60AC07B
:100B000080919201882361F0853061F08091E80046
:100B100083FD0AC08091E80082FFF2CF80E0089553
:100B200082E0089583E0089581E008959C0140915A
:100B3000990150919A014617570718F4F90190E06E
:100B400044C06115710511F0AB01F8CF8091E80048
:100B50008E778093E80040E050E0F0CF80919201E2
:100B6000882309F448C0853009F447C08091E80023
:100B700083FD45C08091E80082FD37C08091E80088
:100B800080FF23C08091F3009091F200782F60E005
:100B9000292F30E0262B372B08C084918093F10059
:100BA0003196415050402F5F3F4F4115510519F08C
:100BB0002830310590F390E02830310509F491E0B8
:100BC0008091E8008E778093E8004115510531F659
:100BD000992321F60AC080919201882361F0853023
:100BE00061F08091E80083FD0AC08091E80082FFF7
:100BF000F2CF80E0089582E0089583E0089581E0D7
:100C00000895382F282F2EC0822F8F708093E900EF
:100C1000231721F4762F942F50E006C07091EC003A
:100C20009091ED005091F00091FF1BC08091EB007E
:100C30008E7F8093EB008091ED008D7F8093ED009F
:100C40008091EB0081608093EB007093EC009093B7
:100C5000ED005093F0008091EE0087FD02C080E02F
:100C600008952F5F273080F23F703093E90081E0D4
:100C700008950F931F93CF93DF93062FEC0110E09D
:100C80002AC09881992329F16B81E981FA812C810D
:100C9000892F8F70873018F5223010F452E001C090
:100CA00056E040E028E030E003C04F5F220F331FE2
:100CB0002E173F07D0F36295660F660F607C991F71
:100CC0009927991F692B4295407F452B9ADF8823EE
:100CD00031F01F5F25961017A0F281E001C080E07F
:100CE000DF91CF911F910F910895809193018823F7
:100CF0009CF404C0809192018823B9F08091E800AF
:100D000082FFF8CF8091E8008B778093E800089508
:100D100080919201882349F08091E80080FFF8CF0C
:100D20008091E8008E778093E80008954091E40078
:100D30005091E50024E68091EC0080FF24C0809172
:100D4000E80080FD1EC080919201882311F482E0AA
:100D50000895853011F483E008958091EB0085FFBC
:100D600002C081E008958091E4009091E50084172D
:100D7000950709F3222311F484E008952150AC0172
:100D8000DACF80E008958091E80082FFDCCFF9CFD0
:100D90006BD072D0E0EEF0E0808181608083A8EDBE
:100DA000B0E08C918F778C9319BCE7EDF0E08081F7
:100DB0008E7F80838C918F7E8C9310929101089509
:100DC000EF92FF920F931F934FD056D008ED10E093
:100DD000F80180818F778083808180688083808123
:100DE0008F7D808319BC1092920110928E01109217
:100DF000900110928F0180EEE82EF12CF701808196
:100E00008B7F8083F80180818160808380E060E057
:100E100042E0F7DEE1EEF0E080818E7F8083E2EE5B
:100E2000F0E0808181608083808188608083F70129
:100E300080818E7F8083F8018081806180831F9113
:100E40000F91FF90EF900895E8EDF0E080818F7EA4
:100E50008083E7EDF0E080818160808384E082BF61
:100E600081E080939101ACCFE8EDF0E080818E7F4E
:100E700080831092E20008951092DA001092E1004F
:100E800008951F920F920FB60F9211241F932F9364
:100E90003F934F935F936F937F938F939F93AF9302
:100EA000BF93EF93FF931091E9008091EC001092B3
:100EB000E9008091F000877F8093F0007894E5D07E
:100EC0001092E9008091F00088608093F0001F701C
:100ED0001093E900FF91EF91BF91AF919F918F9196
:100EE0007F916F915F914F913F912F911F910F9043
:100EF0000FBE0F901F9018951F920F920FB60F9272
:100F000011242F933F934F935F936F937F938F930E
:100F10009F93AF93BF93EF93FF938091E10082FF84
:100F20000AC08091E20082FF06C08091E1008B7FC1
:100F30008093E1001AD28091DA0080FF1CC080917A
:100F4000D80080FF18C08091DA008E7F8093DA008D
:100F50008091D90080FF0BC019BC82E089BD09B423
:100F600000FEFDCF81E080939201D2D904C019BC6C
:100F700010929201D1D98091E10080FF18C0809138
:100F8000E20080FF14C08091E2008E7F8093E20037
:100F90008091E20080618093E2008091D8008062BD
:100FA0008093D80019BC85E080939201DED18091B6
:100FB000E10084FF2EC08091E20084FF2AC019BCAA
:100FC00082E089BD09B400FEFDCF8091D8008F7DFD
:100FD0008093D8008091E1008F7E8093E100809122
:100FE000E2008F7E8093E2008091E2008160809336
:100FF000E20080918E01882311F084E007C0809187
:10100000E30087FD02C081E001C083E0809392018C
:10101000ACD18091E10083FF27C08091E20083FF83
:1010200023C08091E100877F8093E10082E080937C
:10103000920110928E018091E1008E7F8093E100F9
:101040008091E2008E7F8093E2008091E2008061D7
:101050008093E20080E060E042E0D3DD8091F00028
:1010600088608093F00081D1FF91EF91BF91AF91A3
:101070009F918F917F916F915F914F913F912F91B0
:101080000F900FBE0F901F9018951F93DF93CF9373
:10109000CDB7DEB7AC970FB6F894DEBF0FBECDBFAD
:1010A000E3E9F1E08091F100819321E0EB39F2076F
:1010B000C9F773D98091E80083FF3FC18091930104
:1010C00030919401353009F48DC0363040F4313020
:1010D000E1F1313070F0333009F02FC136C03830D3
:1010E00009F4FDC0393009F40CC1363009F025C1CE
:1010F0009CC0803821F0823809F01FC108C090914F
:101100008F01809190018823B1F0926014C080918A
:1011100097018F70873008F010C18093E9008091AB
:10112000EB0090E025E0969587952A95E1F7982FBA
:1011300091701092E9008091E800877F8093E80029
:101140009093F1001092F100D5C0882319F08230FD
:1011500009F0F3C090E08F719070009721F0029732
:1011600009F0EBC00CC080919501813009F0E5C019
:1011700010929001333081F5809390012DC08091C1
:101180009501882349F5209197012F70822F815076
:10119000863008F0D2C02093E9008091EB0080FFF8
:1011A0001BC0333021F48091EB00806213C080912A
:1011B000EB0080618093EB0081E090E002C0880F3B
:1011C000991F2A95E2F78093EA001092EA00809135
:1011D000EB0088608093EB001092E9008091E800BA
:1011E000877F8BC0882309F0A8C0109195011F77D5
:1011F0008091E3008078812B8093E3008091E80068
:10120000877F8093E80071DD8091E80080FFFCCF4C
:101210008091E30080688093E300112311F482E061
:1012200001C083E08093920188C08058823008F02A
:1012300084C0809195019091960123E08C3D9207A6
:1012400009F033C083E08C838AE28B837FB7F89404
:10125000DE0115966EE040E050E011E2E62FF0E08E
:1012600010935700849140FF03C082958F706F5F89
:101270008F70282F30E08A3018F0C901C79602C05D
:10128000C901C0968D939D934F5F5F4F44315105C7
:1012900029F77FBF8091E800877F8093E800CE0127
:1012A00003966AE270E0D8DB14C0609197017091F8
:1012B0009801AE014F5F5F4FB8D9BC01009709F4A8
:1012C0003CC08091E800877F8093E80089819A8103
:1012D0002DDC8091E8008B778093E8002EC0803869
:1012E00061F58091E800877F8093E80080918E010E
:1012F0008093F1008091E8008E778093E800F5DC20
:101300001CC08823D1F4909195019230B0F4809163
:10131000E800877F8093E80090938E01E6DC80915F
:101320008E01882331F48091E30087FD02C081E0C3
:1013300001C084E08093920134D88091E80083FF5B
:101340000AC08091E800877F8093E8008091EB00DD
:1013500080628093EB00AC960FB6F894DEBF0FBEB0
:10136000CDBFCF91DF911F91089508951F93809174
:101370009201882371F01091E9008091EC001092A5
:10138000E9008091E80083FF01C07FDE1F701093A9
:10139000E9001F910895FC0180919201843061F56C
:1013A00084899589A689B7890097A105B10521F19E
:1013B00086818F708093E9008091E80082FF1CC0D5
:1013C0004091F3002091F200942F80E030E0822BD6
:1013D000932B892B31F48091E8008B778093E80080
:1013E0000BC08091F3009091F200382F20E0492F3C
:1013F00050E0422B532B02C040E050E0CA01089558
:10140000FC0180919201843099F584899589A6899F
:10141000B7890097A105B10559F186818F70809336
:10142000E9008091E80082FF23C04091F300209101
:10143000F200942F80E030E0822B932B892B19F45B
:101440006FEF7FEF04C08091F100682F70E0409152
:10145000F3002091F200942F80E030E0822B932B58
:10146000892B41F48091E8008B778093E80002C0DB
:101470006FEF7FEFCB010895FB012EE0DB011D92A2
:101480002A95E9F723E023832DEC3AE03187208782
:101490002FE43AE033872287958784870895FC01FB
:1014A00084859585ADDF9C0197FF02C02EEF3FEF4D
:1014B000C90108950895FC0180919201843051F58D
:1014C00084899589A689B7890097A105B10511F18D
:1014D00081818F708093E9004091F3002091F200A8
:1014E000942F80E030E0822B932B892BA9F09091F0
:1014F000E8008091E8008E778093E80095FD0CC0AD
:1015000015DC982F882349F48091E8008E7780932A
:10151000E80003C092E001C090E0892F0895FC012B
:1015200080919201843091F484899589A689B78944
:101530000097A105B10551F081818F708093E9007A
:101540008091E80080FF02C0CF01B5CF08951F93BE
:10155000FC01162F809192018430E1F484899589F1
:10156000A689B7890097A105B105A1F081818F7087
:101570008093E9008091E80085FD08C08091E80033
:101580008E778093E800D2DB882329F41093F10052
:1015900080E001C082E01F910895282FFB0184851F
:1015A0009585622FD4DF882319F420E030E002C053
:1015B0002FEF3FEFC9010895CF93DF93EC014096E1
:1015C000FC018BE0DF011D928A95E9F782E08C83B4
:1015D000898783E08E87CE01019661E04ADB88230C
:1015E00071F0CE01069661E044DB882341F0CE0124
:1015F0000B9661E03EDB882319F081E001C080E0BA
:10160000DF91CF910895CF93DF93EC018091E800B3
:1016100083FFA5C0888190E02091970130919801C7
:101620002817390709F09BC080919401813269F035
:10163000823220F4803209F092C03CC0823209F438
:101640006CC0833209F08BC07CC080919301813AD9
:1016500009F085C08091E800877F8093E800809141
:10166000E80080FFFCCF8C899D89AE89BF8980937B
:10167000F100292F3A2F4B2F55272093F1009D0180
:10168000442755272093F1008B2F9927AA27BB27A2
:101690008093F100888D8093F100898D8093F10013
:1016A0008A8D8093F1008091E8008E778093E80026
:1016B0001CDB55C080919301813209F050C08091AC
:1016C000E800877F8093E80005C08091920188231D
:1016D00009F445C08091E80082FFF7CF8091F100C6
:1016E0009091F1002091F1003091F1008C8B9D8B55
:1016F0002E8B3F8B8091F100888F8091F100898F34
:101700008091F1008A8F8091E8008B778093E800C8
:10171000ECDACE010E94900122C0809193018132C7
:10172000F1F48091E800877F8093E800DEDA809111
:10173000950190919601998B888BCE010E948F0123
:101740000EC080919301813251F48091E800877F2F
:101750008093E800CADACE0160919501ABDEDF919B
:10176000CF910895A0E0B0E0E7EBFBE0B4C29E01AA
:10177000275F3F4F8D819E816F817885A9012DD094
:101780002096E2E0C4C2EF92FF920F931F93CF9393
:10179000DF937C018B01DB0113968C9181FD03C0EB
:1017A000CFEFDFEF15C0C0E0D0E00EC0D801189633
:1017B000ED91FC911997B8010995892B11F0CFEFA4
:1017C000DFEF0894E11CF11CF7018491882371F785
:1017D000CE01CDB7DEB7E6E096C2ABE0B0E0E2EF17
:1017E000FBE069C23C012B015A01FC011782168201
:1017F000838181FD03C06FEF7FEFB9C19AE0892E2D
:101800001E010894211C311CF3012381F20123FDE8
:10181000859123FF81912F01882309F4A5C1853289
:1018200039F423FD859123FF81912F01853221F425
:1018300090E0B301B6D1E8CF982FFF24EE2499248D
:10184000FFE1FF15D0F09B3269F09C3228F4903212
:1018500059F0933291F40EC09D3249F0903369F4FF
:1018600041E024C052E0F52A84E0F82A28C098E03C
:10187000F92A25C0E0E1FE2A22C0F7FC29C0892F01
:1018800080538A3070F4F6FE05C0989C902C112489
:10189000980E15C0E89CE02C1124E80EF0E2FF2A17
:1018A0000EC09E3229F4F6FC5FC140E4F42A07C062
:1018B0009C3619F450E8F52A02C0983649F4F20132
:1018C00023FD959123FF91912F01992309F0B8CF22
:1018D000892F8554833018F08052833038F444E0E7
:1018E00050E0A40EB51E5FE359830FC0933631F06C
:1018F000933779F0933509F052C01FC0F50180810C
:10190000898342E050E0A40EB51E610101E010E0C1
:1019100011C0F501C080D180F6FC03C06FEF7FEFEE
:1019200002C0692D70E042E050E0A40EB51EC60171
:101930002DD18C015FE7F52213C0F501C080D18065
:10194000F6FC03C06FEF7FEF02C0692D70E042E04C
:1019500050E0A40EB51EC6010ED18C0150E8F52A48
:10196000F3FE06C018C080E290E0B3011AD1EA94F9
:101970008E2D90E008171907B0F30DC0F601F7FCA3
:101980008591F7FE81916F0190E0B3010AD1E110DA
:10199000EA94015010400115110581F7E2C0943618
:1019A00011F0993661F5F7FE08C0F501208131810B
:1019B0004281538184E090E00AC0F50180819181E9
:1019C0009C01442737FD4095542F82E090E0A80EFB
:1019D000B91E9FE6F92257FF09C0509540953095F2
:1019E00021953F4F4F4F5F4FE0E8FE2ACA01B901F2
:1019F000A1012AE030E001D1D82ED2183FC095379E
:101A000029F41F2D1F7E2AE030E01DC01F2D197FF5
:101A10009F3661F0903720F4983509F0A5C00FC0CB
:101A2000903739F0983709F09FC004C028E030E0C3
:101A30000AC0106114FD146020E130E004C014FD00
:101A4000166020E132E017FF08C0F5016081718166
:101A50008281938144E050E008C0F501808191814A
:101A6000BC0180E090E042E050E0A40EB51EA10170
:101A7000C4D0D82ED2188FE7F82EF122F6FE0BC074
:101A80005EEFF522D91438F4F4FE07C0F2FC05C06D
:101A90008FEEF82202C01D2D01C0192DF4FE0DC0DD
:101AA000FE01ED0DF11D8081803319F499EEF922CC
:101AB00008C01F5FF2FE05C003C08F2D867809F0B5
:101AC0001F5F0F2DF3FC13C0F0FE0EC01E1510F0AB
:101AD0009D2C0AC09D2C9E0C911A1E2D05C080E2E3
:101AE00090E0B3015ED01F5F1E15C8F304C01E1541
:101AF00010F4E11A01C0EE2404FF0EC080E390E070
:101B0000B3014FD002FF1BC001FD03C088E790E086
:101B10000EC088E590E00BC0802F867881F001FF31
:101B200002C08BE201C080E2F7FC8DE290E0B301DD
:101B300038D005C080E390E0B30133D09A94D91433
:101B4000C8F3DA94F101ED0DF11D808190E0B3014D
:101B500028D0DD20B1F705C080E290E0B30121D0AC
:101B6000EA94EE20C9F750CEF30166817781CB016C
:101B70002B96E2E1BCC0FC01059061507040011061
:101B8000D8F7809590958E0F9F1F0895FC016150A6
:101B9000704001900110D8F7809590958E0F9F1F8F
:101BA00008950F931F93CF93DF938C01EB018B81EB
:101BB00081FF1BC082FF0DC02E813F818C819D81E2
:101BC0002817390764F4E881F9810193F983E883E0
:101BD00006C0E885F985802F0995892B31F48E811F
:101BE0009F8101969F838E8302C00FEF1FEFC80174
:101BF000DF91CF911F910F910895FA01AA27283004
:101C000051F1203181F1E8946F936E7F6E5F7F4FC9
:101C10008F4F9F4FAF4FB1E03ED0B4E03CD0670F45
:101C2000781F891F9A1FA11D680F791F8A1F911D98
:101C3000A11D6A0F711D811D911DA11D20D009F4E8
:101C400068943F912AE0269F11243019305D31932A
:101C5000DEF6CF010895462F4770405D4193B3E013
:101C60000FD0C9F7F6CF462F4F70405D4A3318F0BA
:101C7000495D31FD4052419302D0A9F7EACFB4E06B
:101C8000A6959795879577956795BA95C9F7009723
:101C90006105710508959B01AC010A2E06945795C4
:101CA000479537952795BA95C9F7620F731F841F1B
:101CB000951FA01D08952F923F924F925F926F92B1
:101CC0007F928F929F92AF92BF92CF92DF92EF92CC
:101CD000FF920F931F93CF93DF93CDB7DEB7CA1B4D
:101CE000DB0B0FB6F894DEBF0FBECDBF09942A8878
:101CF000398848885F846E847D848C849B84AA8420
:101D0000B984C884DF80EE80FD800C811B81AA81AC
:101D1000B981CE0FD11D0FB6F894DEBF0FBECDBF77
:081D2000ED010895F894FFCFD6
:101D28000D25376C75202F0025376C752000008332
:101D3800400000010440000001820800000100008A
:0A1D48000000000000000000000091
:00000001FF
