:1000000065C100007FC100007DC100007BC1000010
:1000100079C1000077C1000075C1000073C1000004
:1000200071C100006FC100000C945E0A0C94230A99
:1000300069C1000067C1000065C1000063C1000024
:1000400061C100005FC100005DC100005BC1000034
:1000500059C1000057C1000055C1000053C1000044
:1000600051C100004FC100004DC100004BC1000054
:1000700049C1000047C1000045C1000043C1000064
:1000800041C100003FC100003DC100003BC1000074
:1000900039C1000037C1000035C1000033C1000084
:1000A00031C100002FC100002DC100000D0A0A2A35
:1000B000204D6F6A6F204F53202A0D0A2863292094
:1000C000323032312C20522E2054726170700A006E
:1000D0000D0A3E2000203C2D203F000D0A41776193
:1000E0006974696E672064617461000D0A537563F9
:1000F000636573730D0A000D0A4641494C000D0AF1
:10010000436F6E66696720464C41534820697320EF
:10011000656D707479000D0A4E6F742061204D6911
:1001200063726F6368697020464C415348000D0A42
:10013000496E76616C69642062697473747265617A
:100140006D000D0A436F6D6D616E64733A0D0A2088
:10015000563A20566F6C6174696C6520436F6E6609
:1001600069670D0A20453A20457261736520464C47
:100170004153480D0A20573A20577269746520741C
:100180006F20464C4153480D0A20433A20436F6E7E
:100190006669672066726F6D20464C4153480D0AB0
:1001A00020693A20496E666F2061626F757420463F
:1001B0004C4153480D0A203F3A2048656C700D0AA7
:1001C000000D0A000D0A001201100102000008DDF6
:1001D00029018001000102030109023E0002010021
:1001E000C0FA090400000102020100052400100108
:1001F000042402060524060001070582030800FF07
:1002000009040100020A000000070504024000057D
:100210000705830240000504030904360345006D09
:100220000062006500640064006500640020004D09
:10023000006900630072006F002C0020005200650E
:10024000006E0065002000540072006100700070B4
:10025000000000620341006C0063006800690074E4
:10026000007200790020004D006F006A006F0020CE
:100270000056003300200043006F006E00660069E6
:10028000006700200054006F006F006C002C0020FD
:1002900000410054006D00650067006100330032CA
:1002A0000055003400200040002000380020004DA0
:1002B0000048007A00000006033000310000000012
:1002C000090FF00FF00FF00FF000000111241FBE16
:1002D000CFEFDAE0DEBFCDBF11E0A0E0B1E0EEE0AD
:1002E000FEE102C005900D92A032B107D9F711E0EE
:1002F000A0E2B1E001C01D92AF33B107E1F73DD4F8
:100300000C94050F7DCECF93DF93EC01EA81FB8146
:100310003191FB83EA838E819F81E817F90721F4ED
:100320008C819D819B838A832FB7F8948A859B85D6
:1003300001979B878A872FBF832FDF91CF910895E5
:10034000089508950895FC0184899589A689B7893F
:10035000803BF4E09F07F0E0AF07F0E0BF0739F023
:1003600080569940A040B04009F032C018C01092A9
:10037000030810920208EED7F89487E797E7909366
:100380000108809300082CE088E190E00FB6F89413
:10039000A895809360000FBE20936000FFCF84E398
:1003A00092E190930308809302084CD4D3D7F89439
:1003B00010920108109200082CE088E190E00FB63E
:1003C000F894A895809360000FBE20936000FFCF43
:1003D000089580E091E00C94E90D80E091E00C94A8
:1003E000C20DAF92BF92CF92DF92EF92FF920F9326
:1003F0001F93DF93CF93CDB7DEB7CC58D0400FB665
:10040000F894DEBF0FBECDBFFFD5FE0131962FB7EA
:10041000F894CE010D969183808393838283958394
:100420008483CE0183579F4F9783868380E890E033
:1004300091878087138612862FBFDD24EE24FF2448
:100440005E010894A11CB11CCC24CA9480E091E008
:100450000E94750D0E949C0C80E091E00E94B10CFE
:1004600069857A854FB7F8942B853C854FBF621B11
:10047000730B8C016817790760F58B012AC080E047
:1004800091E00E94E60CF501AF010190F081E02DB2
:100490008083DA018D919C911197019611969C931E
:1004A0008E9316962D913C9117978217930731F4EE
:1004B00014968D919C9115978D939C932FB7F894DA
:1004C000FA01828593850196938782872FBF015019
:1004D00010400115110599F6F3E0FF1558F082E080
:1004E000F81608F074C0FF2071F0A1E0FA1609F0C8
:1004F000B7C017C0B4E0FB1609F47FC0E5E0FE16F4
:1005000009F0AEC09AC02FB7F8948B859C852FBF99
:10051000892B09F4A5C0C501F6DED82EFF24F3947B
:100520009FC02FB7F8948B859C852FBF892B09F42A
:1005300097C0C501E8DEE82E80E091E06D2D0E94B5
:100540008D0D80E091E06E2D0E948D0DF7E5DF1698
:10055000A9F0FD1540F083E2D816E1F0A2E5DA1625
:1005600009F07DC013C0B2E7DB1661F0E7E7DE16E5
:1005700009F075C0589832E0F32E72C0589A23E003
:10058000F22E6EC0589894E0F92E6AC0589A85E011
:10059000F82E66C0F2E5EF1609F061C053D384E38C
:1005A00092E19093030880930208C457DF4F0FB67F
:1005B000F894DEBF0FBECDBFCF91DF911F910F9199
:1005C000FF90EF90DF90CF90BF90AF9008955A9832
:1005D000C4B82FB7F8948B859C852FBF029750F134
:1005E00009C0C50190DE85B95B9AC5018CDE85B96D
:1005F0005B98EA94EE20A9F732C08FB7F8940B8588
:100600001C858FBF11C05A98C4B8C5017CDE85B95E
:100610005B9A14B85A9A5B9863B180E091E00E94AB
:100620008D0D01501040EA940115110519F0EE20CE
:1006300051F715C0EE20A1F412C014B85A9A0DC09B
:1006400063B180E091E00E948D0D5B9A63B180E020
:1006500091E00E948D0D5B98EA94EE2089F7FF24CB
:1006600080E091E00E94410DF1CE60E271E00C94D7
:10067000C00E2F923F924F925F926F927F929F9205
:10068000AF92BF92CF92DF92EF92FF920F931F93A0
:10069000DF93CF93CDB7DEB7CB50D7400FB6F894EA
:1006A000DEBF0FBECDBF8091020890910308845336
:1006B000924139F49924C75FD84F1882C950D74066
:1006C00008C065E0962E83E7C75FD84F8883C9507E
:1006D000D740AA24BB246501442455243201DE01FD
:1006E0001196C65FD84FB983A883CA50D74002C0BD
:1006F00058E0952E80E091E00E94750D0E949C0CC0
:10070000B5E09B1609F4D1C0B915A0F0E2E09E1641
:1007100009F441C0E91530F0992011F1F1E09F167C
:1007200049F736C023E0921609F457C084E09816C2
:1007300009F756C098E0991609F475C1991540F06B
:10074000A6E09A1609F4B7C0B7E09B1699F61FC148
:10075000E9E09E1609F489C1FAE09F1659F6DBC15B
:1007600080E091E00E94B10C813011F0182F0DC093
:1007700080E091E00E94E60C8CEA90E076DF5BC0BE
:1007800080E091E00E94E60C11501123C9F7B2CF2E
:1007900082E491E06ADF20D38F3B19F086E191E09B
:1007A00064DFCE01019640E050E060E070E028E0B8
:1007B00037E01FD3CE01019661E681D28C0100970C
:1007C00049F084EC91E051DFC80160E271E00E94E1
:1007D000980E03C08EEF90E048DF80ED90E045DF9B
:1007E00080E091E00E94B10C813011F0182F58C0C8
:1007F00080E091E00E94E60C182F80E091E0612FEC
:100800000E948D0D133449F1143448F41D3009F45D
:100810007FC11F3381F01A3009F03AC079C1163513
:1008200081F0173518F4153499F530C0173509F1F2
:10083000193671F503C0992493945CCF42E0942E4D
:1008400059CF8BED90E011DF35E0932E25E7C75FA0
:10085000D84F2883C950D7404DCF81EC91E005DFB8
:1008600025E0922E83E7C75FD84F8883C950D740D1
:1008700041CFF4D28BED90E0F8DE99E0992EAA24D6
:10088000BB24650144245524320134CFE7D240C152
:1008900085ED90E03CC180E091E00E94E60C1150B3
:1008A0001123C9F784E0982E25CFAA24BB24650123
:1008B000442455243201C75FD84F9881C950D7408E
:1008C000933721F1953719F003E0902E30C080E086
:1008D00091E00E94B10C1C0111E0E12EF12CEC0E14
:1008E000FD1EEA0CFB1C00E010E009C080E091E076
:1008F0000E94E60CD7018D937D010F5F1F4F0215FB
:100900001305A0F3C101A0E0B0E00BC0CE01019639
:10091000B601A50128E037E06CD288E097E0A0E0BE
:10092000B0E0A80EB91ECA1EDB1EB6E09B2E99ECE5
:10093000A91696E0B90690E0C90690E0D90608F439
:10094000D9CECE01019665E6BAD18C01009709F4A3
:10095000DCC0E9D12B013C01A4E0EA2EF12CE00E31
:10096000F11E01E010E00C0F1D1F0A0D1B1D0E19DA
:100970001F09C801A0E0B0E0481A590A6A0A7B0AB8
:1009800061D1C701B8016ED1F7E09F2EB3CEC75F2A
:10099000D84FA881C950D740A537B1F480E091E085
:1009A000E0D77C018E010F5F1F4F1801280E391E02
:1009B00007C080E091E00E94E60CF80181938F016E
:1009C00002151305B1F713C0CE010196B601A501BA
:1009D00028E037E00ED288E097E0A0E0B0E0A80E73
:1009E000B91ECA1EDB1EE8E0EE2EE7E0FE2EC701B0
:1009F000A0E0B0E0481659066A067B0628F47201AA
:100A000044245524320104C0481A590A6A0A7B0A50
:100A1000CE010196B70126D141145104610471043D
:100A200009F466CE67CE2DD18823E1F48BEE90E0F9
:100A30001CDEC55FD84F0FB6F894DEBF0FBECDBF2A
:100A4000CF91DF911F910F91FF90EF90DF90CF90AA
:100A5000BF90AF909F907F906F905F904F903F902E
:100A60002F90089587EF90E052C080E091E079D711
:100A70001C0171E0E72EF12CEC0EFD1EEA0CFB1CB4
:100A800000E010E008C080E091E0A0D7D7018D938E
:100A90007D010F5F1F4F02151305A8F3C101A0E0F0
:100AA000B0E0A80EB91ECA1EDB1EB9ECAB16B6E04C
:100AB000BB06B0E0CB06B0E0DB0608F41BCECE01EF
:100AC000019665E6FCD08C010097F9F02CD12B0142
:100AD0003C01C65FD84FE881F981CA50D7400E1B50
:100AE0001F0BC801AA2797FDA095BA2F480E591EC3
:100AF0006A1E7B1ECE01019640E050E060E070E08F
:100B00009501C1D16AE0962EF5CD8EE291E0ADDD82
:100B100053E0952EEFCD80E091E023D77C01009744
:100B2000E9F08E010F5F1F4F1801280E391E06C015
:100B300080E091E04BD7D8018D938D01021513050C
:100B4000B9F7CE010196B601A50197019CD1C70165
:100B5000A0E0B0E0A80EB91ECA1EDB1EA414B504A6
:100B6000C604D70408F4C6CD45E0942EB3E7C75FAA
:100B7000D84FB883C950D740BDCD84B7877F84BFD5
:100B800088E10FB6F89480936000109260000FBE69
:100B900080E090E020E80FB6F89420936100809305
:100BA00061000FBE31D243D014D180E091E060E209
:100BB00071E048D72BD478947FD0882311F459DD85
:100BC000FBCF0FDCF9CFDA01923049F0933061F0BE
:100BD000913029F5E7ECF1E022E130E024C0E9EDC5
:100BE000F1E02EE330E01FC0813059F0813028F071
:100BF000823059F0833099F40CC0E7E1F2E084913F
:100C00000BC0EBE1F2E0849107C0E3E5F2E08491F0
:100C100003C0E7EBF2E08491282F30E004C0E0E06D
:100C2000F0E020E030E0ED93FC93C9010895479A8D
:100C30003F9A3E9846985098589855985D9814B8A1
:100C400015B808953E9855983F9A479882E08A953E
:100C5000F1F75898509A479A14B88FEF85B94D9B81
:100C6000FECF0895FC018FEF84B99B0106C08191EE
:100C700085B9589A58982150304021153105B9F757
:100C8000089514B88FEF85B988E08A95F1F780E16F
:100C900097E204C0589A5898019711F0369BFACF02
:100CA000369902C08FEF089588E0589A589881507D
:100CB000E1F7BDDF80E0089586B180740895CF9399
:100CC000DF93EC012FEB32E0F901949188818917D1
:100CD00021F521962F5F3F4FF2E02C3C3F07A1F713
:100CE00046E0DE0111968881861729F46536B9F051
:100CF000DE01139614C05981CD01019611967C91A5
:100D0000415059F0352F20E0EC012196872F90E0DB
:100D1000822B932BC80FD91FE4CFA0E0B0E0CD0108
:100D2000DF91CF910895FC0110922E0110922F01B6
:100D300010923001109231010097F9F064E0219196
:100D400030E040E050E080912E0190912F01A09181
:100D50003001B0913101BA2FA92F982F8827282B65
:100D6000392B4A2B5B2B20932E0130932F0140937C
:100D7000300150933101615011F760912E01709153
:100D80002F0180913001909131010895289A87E0D8
:100D900084B980E58CBD81E08DBD0895599A14B861
:100DA0001CBC08958EBD0DB407FEFDCF8EB5089511
:100DB000599885E0F7DF80E0F5DF80FDFCCF599A98
:100DC0000895599882E08A95F1F71B9BFECF599AB6
:100DD0000895599A519A08951F93D8DF59988FE929
:100DE000E1DF80E0DFDF182F599AD8DF812F1F91D4
:100DF0000895CF92DF92EF92FF920F931F93CF93BC
:100E0000DF93EC017A018B01D22EC32EBFDF5998FC
:100E100083E0C8DFC801AA27BB27C4DFBB27A12FF7
:100E2000902F8F2DBFDF8E2DBDDF2D2D3C2DC901C5
:100E30006C0106C080E0B6DF89930894C108D10830
:100E4000C114D104B9F7599AA9DFDF91CF911F914D
:100E50000F91FF90EF90DF90CF90089597DF599812
:100E600086E0A0DF599A599881E09CDF80E09ADF04
:100E7000599A599886E096DF599A599880E692DFF8
:100E8000599A96DF8BCF8F929F92AF92BF92CF925B
:100E9000DF92EF92FF920F931F93CF93DF93EC01BA
:100EA0007A018B0159012115310509F4A0C06EDFCB
:100EB000C70181709070892BF1F0599886E072DF3C
:100EC000599A599882E06EDFC801AA27BB276ADFCA
:100ED000BB27A12F902F8F2D65DF8E2D63DF89918A
:100EE00061DF599A0894E11CF11C011D111D089441
:100EF000A108B1085DDF82E0A816B10408F45EC065
:100F0000599880E74FDF599A599886E04BDF599AF4
:100F100059988DEA47DFC801AA27BB2743DFBB27C3
:100F2000A12F902F8F2D3EDF8E2D3CDF88813ADF61
:100F300021964E010894811C911C2197898132DFF2
:100F4000599A3FDF650109C059988DEA2BDF8881E6
:100F500029DF898127DF599A34DFAEEFBFEFCA0E50
:100F6000DB1E2296B2E0CB16D10470F7C5010297C2
:100F70009C0136952795B901660F771F5C01A61A6B
:100F8000B70A82E090E0A0E0B0E0E80EF91E0A1F88
:100F90001B1F40E050E0220F331F441F551FE20E7D
:100FA000F31E041F151FE401C60FD71F599884E0D4
:100FB000F9DE599A599880E8F5DE599AAB28B1F0D4
:100FC000599886E0EFDE599A599882E0EBDEC80125
:100FD000AA27BB27E7DEBB27A12F902F8F2DE2DEAC
:100FE0008E2DE0DE8881DEDE599AE2DED7DEDF91EB
:100FF000CF911F910F91FF90EF90DF90CF90BF9016
:10100000AF909F908F9008955A98529A15B88FEF8D
:1010100084B95B98539A5898509A08959C014091CE
:101020003D0150913E014617570718F4F90190E031
:1010300043C06115710511F0AB01F8CF8091E80054
:101040008E778093E80040E050E0F0CF8091360149
:10105000882309F447C0853009F446C08091E80030
:1010600083FD44C08091E80082FD36C08091E80095
:1010700080FF22C08091F3009091F200782F60E011
:10108000292F30E0262B372B07C081918093F10068
:10109000415050402F5F3F4F4115510519F0283006
:1010A000310598F390E02830310509F491E0809102
:1010B000E8008E778093E8004115510539F69923B1
:1010C00029F60AC080913601882361F0853061F0ED
:1010D0008091E80083FD0AC08091E80082FFF2CF92
:1010E00080E0089582E0089583E0089581E0089506
:1010F0009C0140913D0150913E014617570718F45D
:10110000F90190E044C06115710511F0AB01F8CF11
:101110008091E8008E778093E80040E050E0F0CFC7
:1011200080913601882309F448C0853009F447C00E
:101130008091E80083FD45C08091E80082FD37C0C2
:101140008091E80080FF23C08091F3009091F2002D
:10115000782F60E0292F30E0262B372B08C08491B0
:101160008093F1003196415050402F5F3F4F411521
:10117000510519F02830310590F390E02830310501
:1011800009F491E08091E8008E778093E8004115A2
:10119000510531F6992321F60AC080913601882342
:1011A00061F0853061F08091E80083FD0AC0809194
:1011B000E80082FFF2CF80E0089582E0089583E0A6
:1011C000089581E00895382F282F2EC0822F8F7028
:1011D0008093E900231721F4762F942F50E006C066
:1011E0007091EC009091ED005091F00091FF1BC0C8
:1011F0008091EB008E7F8093EB008091ED008D7FDE
:101200008093ED008091EB0081608093EB00709300
:10121000EC009093ED005093F0008091EE0087FD7C
:1012200002C080E008952F5F273080F23F70309336
:10123000E90081E008950F931F93CF93DF93062F6A
:10124000EC0110E02AC09881992329F16B81E98192
:10125000FA812C81892F8F70873018F5223010F495
:1012600052E001C056E040E028E030E003C04F5FAC
:10127000220F331F2E173F07D0F36295660F660FBC
:10128000607C991F9927991F692B4295407F452BB8
:101290009ADF882331F01F5F25961017A0F281E0B6
:1012A00001C080E0DF91CF911F910F91089580914F
:1012B000370188239CF404C0809136018823B9F05B
:1012C0008091E80082FFF8CF8091E8008B778093CF
:1012D000E800089580913601882349F08091E80064
:1012E00080FFF8CF8091E8008E778093E800089522
:1012F0004091E4005091E50024E68091EC0080FFED
:1013000024C08091E80080FD1EC0809136018823B2
:1013100011F482E00895853011F483E008958091FE
:10132000EB0085FF02C081E008958091E400909178
:10133000E5008417950709F3222311F484E008954A
:101340002150AC01DACF80E008958091E80082FF5F
:10135000DCCFF9CF6BD072D0E0EEF0E0808181601D
:101360008083A8EDB0E08C918F778C9319BCE7ED6A
:10137000F0E080818E7F80838C918F7E8C931092A1
:1013800035010895EF92FF920F931F934FD056D0DF
:1013900008ED10E0F80180818F778083808180687C
:1013A000808380818F7D808319BC109236011092DA
:1013B0003201109234011092330180EEE82EF12CAC
:1013C000F70180818B7F8083F80180818160808339
:1013D00080E060E042E0F7DEE1EEF0E080818E7FC9
:1013E0008083E2EEF0E0808181608083808188608C
:1013F0008083F70180818E7F8083F8018081806106
:1014000080831F910F91FF90EF900895E8EDF0E039
:1014100080818F7E8083E7EDF0E080818160808332
:1014200084E082BF81E080933501ACCFE8EDF0E04D
:1014300080818E7F80831092E20008951092DA00FE
:101440001092E10008951F920F920FB60F9211248F
:101450001F932F933F934F935F936F937F938F933C
:101460009F93AF93BF93EF93FF931091E900809107
:10147000EC001092E9008091F000877F8093F000EB
:101480007894E7D01092E9008091F0008860809312
:10149000F0001F701093E900FF91EF91BF91AF91A1
:1014A0009F918F917F916F915F914F913F912F917C
:1014B0001F910F900FBE0F901F9018951F920F92C3
:1014C0000FB60F9211242F933F934F935F936F9317
:1014D0007F938F939F93AF93BF93EF93FF938091ED
:1014E000E10082FF0AC08091E20082FF06C0809185
:1014F000E1008B7F8093E1001ED28091DA0080FFB3
:101500001EC08091D80080FF1AC08091DA008E7FC3
:101510008093DA008091D90080FF0CC019BC82E072
:1015200089BD09B400FEFDCF81E0809336010E94A1
:10153000A00105C019BC109236010E94A101809142
:10154000E10080FF18C08091E20080FF14C080910C
:10155000E2008E7F8093E2008091E20080618093C0
:10156000E2008091D80080628093D80019BC85E0A9
:1015700080933601E0D18091E10084FF2EC08091FC
:10158000E20084FF2AC019BC82E089BD09B400FED4
:10159000FDCF8091D8008F7D8093D8008091E100AD
:1015A0008F7E8093E1008091E2008F7E8093E20045
:1015B0008091E20081608093E20080913201882373
:1015C00011F084E007C08091E30087FD02C081E054
:1015D00001C083E080933601AED18091E10083FFAA
:1015E00027C08091E20083FF23C08091E100877FC4
:1015F0008093E10082E08093360110923201809165
:10160000E1008E7F8093E1008091E2008E7F8093E5
:10161000E2008091E20080618093E20080E060E07F
:1016200042E0D1DD8091F00088608093F00083D1AA
:10163000FF91EF91BF91AF919F918F917F916F91AA
:101640005F914F913F912F910F900FBE0F901F9080
:1016500018951F93DF93CF93CDB7DEB7AC970FB636
:10166000F894DEBF0FBECDBFE7E3F1E08091F1005B
:10167000819321E0EF33F207C9F70E94E9018091DD
:10168000E80083FF40C18091370130913801353047
:1016900009F48DC0363040F43130E1F1313070F072
:1016A000333009F030C136C0383009F4FDC039306C
:1016B00009F40CC1363009F026C19CC0803821F0F5
:1016C000823809F020C108C0909133018091340123
:1016D0008823B1F0926014C080913B018F708730F5
:1016E00008F011C18093E9008091EB0090E025E0C3
:1016F000969587952A95E1F7982F91701092E900B9
:101700008091E800877F8093E8009093F100109229
:10171000F100D5C0882319F0823009F0F4C090E0C0
:101720008F719070009721F0029709F0ECC00CC007
:1017300080913901813009F0E6C0109234013330D4
:1017400081F5809334012DC080913901882349F5BA
:1017500020913B012F70822F8150863008F0D3C03A
:101760002093E9008091EB0080FF1BC0333021F40F
:101770008091EB00806213C08091EB0080618093C8
:10178000EB0081E090E002C0880F991F2A95E2F7F4
:101790008093EA001092EA008091EB0088608093C9
:1017A000EB001092E9008091E800877F8BC08823CE
:1017B00009F0A9C0109139011F778091E30080786A
:1017C000812B8093E3008091E800877F8093E8007D
:1017D0006EDD8091E80080FFFCCF8091E30080689F
:1017E0008093E300112311F482E001C083E0809331
:1017F000360189C08058823008F085C08091390157
:1018000090913A0123E08C3D920709F033C083E0C8
:101810008C838AE28B837FB7F894DE0115966EE0A5
:1018200040E050E011E2E62FF0E010935700849181
:1018300040FF03C082958F706F5F8F70282F30E05C
:101840008A3018F0C901C79602C0C901C0968D93AD
:101850009D934F5F5F4F4431510529F77FBF8091C2
:10186000E800877F8093E800CE0103966AE270E08B
:10187000D5DB14C060913B0170913C01AE014F5F1C
:101880005F4FA1D9BC01009709F43DC08091E800E9
:10189000877F8093E80089819A812ADC8091E80023
:1018A0008B778093E8002FC0803869F58091E8003D
:1018B000877F8093E800809132018093F1008091CE
:1018C000E8008E778093E800F2DC1DC08823D9F40D
:1018D000909139019230B8F48091E800877F80932D
:1018E000E80090933201E3DC80913201882331F4E7
:1018F0008091E30087FD02C081E001C084E0809315
:1019000036010E94ED018091E80083FF0AC08091BA
:10191000E800877F8093E8008091EB0080628093ED
:10192000EB00AC960FB6F894DEBF0FBECDBFCF91E3
:10193000DF911F91089508951F93809136018823A8
:1019400071F01091E9008091EC001092E900809113
:10195000E80083FF01C07DDE1F701093E9001F9136
:101960000895FC0180913601843061F58489958960
:10197000A689B7890097A105B10521F186818F70ED
:101980008093E9008091E80082FF1CC04091F30041
:101990002091F200942F80E030E0822B932B892B52
:1019A00031F48091E8008B778093E8000BC0809140
:1019B000F3009091F200382F20E0492F50E0422BA5
:1019C000532B02C040E050E0CA010895FC01809111
:1019D0003601843099F584899589A689B78900975D
:1019E000A105B10559F186818F708093E90080913E
:1019F000E80082FF23C04091F3002091F200942F71
:101A000080E030E0822B932B892B19F46FEF7FEF6E
:101A100004C08091F100682F70E04091F3002091A4
:101A2000F200942F80E030E0822B932B892B41F43D
:101A30008091E8008B778093E80002C06FEF7FEF22
:101A4000CB010895FB012EE0DB011D922A95E9F7F9
:101A500023E0238323EB3DE03187208725E33DE02E
:101A600033872287958784870895FC01848595852F
:101A7000ADDF9C0197FF02C02EEF3FEFC901089533
:101A80000895FC0180913601843051F5848995894F
:101A9000A689B7890097A105B10511F181818F70E1
:101AA0008093E9004091F3002091F200942F80E0B0
:101AB00030E0822B932B892BA9F09091E800809144
:101AC000E8008E778093E80095FD0CC011DC982F1C
:101AD000882349F48091E8008E778093E80003C062
:101AE00092E001C090E0892F0895FC0180913601B9
:101AF000843091F484899589A689B7890097A105D6
:101B0000B10551F081818F708093E9008091E800E8
:101B100080FF02C0CF01B5CF08951F93FC01162F9F
:101B2000809136018430E1F484899589A689B7894A
:101B30000097A105B105A1F081818F708093E90024
:101B40008091E80085FD08C08091E8008E77809341
:101B5000E800CEDB882329F41093F10080E001C077
:101B600082E01F910895282FFB0184859585622FBF
:101B7000D4DF882319F420E030E002C02FEF3FEFDC
:101B8000C9010895CF93DF93EC014096FC018BE0EF
:101B9000DF011D928A95E9F782E08C83898783E0D3
:101BA0008E87CE01019661E046DB882371F0CE017D
:101BB000069661E040DB882341F0CE010B9661E0A0
:101BC0003ADB882319F081E001C080E0DF91CF91FA
:101BD0000895CF93DF93EC018091E80083FFA5C0C7
:101BE000888190E020913B0130913C012817390712
:101BF00009F09BC080913801813269F0823220F473
:101C0000803209F092C03CC0823209F46CC0833249
:101C100009F08BC07CC080913701813A09F085C002
:101C20008091E800877F8093E8008091E80080FF42
:101C3000FCCF8C899D89AE89BF898093F100292FC3
:101C40003A2F4B2F55272093F1009D01442755270C
:101C50002093F1008B2F9927AA27BB278093F100AF
:101C6000888D8093F100898D8093F1008A8D809317
:101C7000F1008091E8008E778093E80018DB55C072
:101C800080913701813209F050C08091E800877F50
:101C90008093E80005C080913601882309F445C08F
:101CA0008091E80082FFF7CF8091F1009091F100E0
:101CB0002091F1003091F1008C8B9D8B2E8B3F8B0E
:101CC0008091F100888F8091F100898F8091F100DF
:101CD0008A8F8091E8008B778093E800E8DACE0164
:101CE0000E94A30122C0809137018132F1F48091DA
:101CF000E800877F8093E800DADA809139019091DB
:101D00003A01998B888BCE010E94A2010EC080916E
:101D10003701813251F48091E800877F8093E80099
:101D2000C6DACE0160913901ABDEDF91CF91089523
:101D3000EF92FF920F931F93CF93DF937C018B0160
:101D4000DB0113968C9181FD03C0CFEFDFEF13C051
:101D5000C0E0D0E00BC0D8011896ED91FC91199726
:101D6000B8010995892B11F0CFEFDFEFF7018191D1
:101D70007F01882381F7CE01CDB7DEB7E6E036C01C
:101D8000EF92FF920F931F93CF93DF937C018B0110
:101D9000DB0113968C9181FD03C0CFEFDFEF15C0FF
:101DA000C0E0D0E00EC0D8011896ED91FC911997D3
:101DB000B8010995892B11F0CFEFDFEF0894E11CF2
:101DC000F11CF7018491882371F7CE01CDB7DEB7FE
:101DD000E6E00CC02A88398848885F846E847D8458
:101DE0008C849B84AA84B984C884DF80EE80FD80C3
:101DF0000C811B81AA81B981CE0FD11D0FB6F89439
:0E1E0000DEBF0FBECDBFED010895F894FFCFF9
:101E0E000083400000010440000001820800000130
:101E1E0000000000000000000000000008020800A2
:00000001FF
