:1000000059C1000073C1000071C100006FC1000040
:100010006DC100006BC1000069C1000067C1000034
:1000200065C1000063C1000068C700002BC7000065
:100030005DC100005BC1000059C1000057C1000054
:1000400055C1000053C1000051C100004FC1000064
:100050004DC100004BC1000049C1000047C1000074
:1000600045C1000043C1000041C100003FC1000084
:100070003DC100003BC1000039C1000037C1000094
:1000800035C1000033C1000031C100002FC10000A4
:100090002DC100002BC1000029C1000027C10000B4
:1000A00025C1000023C1000021C100000D0A0A0A79
:1000B0002A205370617274616E20436F6E666967A7
:1000C000757261746F72202A0A0D286329203230FC
:1000D00032312C2052656EE92054726170700A0032
:1000E0000D0A3E2000203C2D3F000D0A465047419E
:1000F00020636F6E66696775726174696F6E2072D6
:10010000656164792C206177616974696E6720622A
:10011000697473747265616D20282E626974292078
:1001200066696C652E0D0A000D0A2A2A2046504782
:1001300041207375636365737366756C6C792063B6
:100140006F6E666967757265642E202A2A000D0A33
:100150002A2A204650474120636F6E666967757290
:100160006174696F6E206661696C656421202A2A5A
:10017000000D0A416363657074656420636F6D6D83
:10018000616E64733A0D0A20563A20566F6C6174A2
:10019000696C65205553422D436F6E6669677572B1
:1001A0006174696F6E0D0A203F3A205468697320AC
:1001B000276D616E70616765270A001201100102E8
:1001C000000008DD29018001000102030109023E4F
:1001D00000020100C0FA090400000102020100054A
:1001E00024001001042402060524060001070582EC
:1001F000030800FF09040100020A000000070504CB
:100200000240000507058302400005040309043687
:100210000345006D006200650064006400650064D1
:100220000020004D006900630072006F002C002068
:1002300000520065006E00650020005400720061ED
:1002400000700070000000620341006C00630068F1
:1002500000690074007200790020004D006F006A90
:10026000006F00200056003300200043006F006E36
:1002700000660069006700200054006F006F006C8A
:10028000002C002000410054006D006500670061F3
:1002900000330032005500340020004000200038B8
:1002A0000020004D0048007A0000000603300031B5
:1002B0000000000011241FBECFEFDAE0DEBFCDBF8B
:1002C00011E0A0E0B1E0EAE2FDE102C005900D928C
:1002D000AE32B107D9F711E0AEE2B1E001C01D9234
:1002E000AF39B107E1F750D00C94930E89CE81E07D
:1002F00080933F01089510923F0108950895FC01F5
:1003000084899589A689B789803BF4E09F07F0E04E
:10031000AF07F0E0BF0731F080569940A040B040F1
:1003200051F514C036D5F89487E797E79093010804
:10033000809300082CE088E190E00FB6F894A8952F
:10034000809360000FBE20936000FFCFD6D121D5EF
:10035000F89488E898E890930108809300082CE0CE
:1003600088E190E00FB6F894A895809360000FBEE6
:1003700020936000FFCF089583E191E00C94040B7B
:1003800083E191E00C94DD0A4F925F926F927F922D
:100390008F929F92AF92BF92CF92DF92EF92FF9295
:1003A0000F931F93CF93DF9384B7877F84BF88E138
:1003B0000FB6F89480936000109260000FBE80E04A
:1003C00090E020E80FB6F8942093610080936100DC
:1003D0000FBE60D12BD310923F0183E191E06EE21A
:1003E00071E00E943D0A31D5789402E0772473943D
:1003F0006EE2E62E61E0F62E54E0552E40E0842EAB
:1004000041E0942E33E0432E25E0622E95E0A92EA4
:1004100091E0B92E8DE0C82E81E0D82E83E191E0E5
:10042000BBD790933E0180933D01892B91F010E062
:1004300007C083E191E0E5D7C05CDE4F88831F5F92
:10044000C12FD0E080913D0190913E01C817D9079E
:1004500080F380913F01823011F1833030F48823A2
:1004600069F0813009F0DDC00EC0843009F464C049
:100470008430E8F0853009F0D4C068C09FD288236A
:1004800009F0CFC037C08CEA90E06EE271E00E94C4
:10049000C40B81E791E06EE271E00E94C40B80EE34
:1004A00090E06EE271E00E94C40B40923F018091A7
:1004B0003D0190913E01019709F0B3C083E191E0C5
:1004C000609140010E94A80A00933F018091400181
:1004D0008F3381F0803430F48A3009F4A2C08D303B
:1004E00021F59FC0863519F08936F9F406C050927F
:1004F0003F0197C070923F0194C0A2D200D000D0BB
:1005000000D0EDB7FEB73196ADB7BEB71296FC92EC
:10051000EE92119793828282848315820E94B30B9C
:100520002DB73EB72A5F3F4F65C085EE90E06EE283
:1005300071E00E94C40B75C0BAD08AEE90E06EE202
:1005400071E00E94C40B60923F016BC060913D015D
:1005500070913E0180E491E0D9D0833009F450C01D
:100560008F3F09F456C0813009F05BC080913D0196
:1005700090913E01892B09F454C023D2ADB7BEB788
:1005800018970FB6F894BEBF0FBEADBFEDB7FEB75C
:1005900031961296FC92EE921197B382A2826483F6
:1005A0007583868397830E94B30B2DB73EB7285F70
:1005B0003F4F0FB6F8943EBF0FBE2DBF16D2ADB75A
:1005C000BEB718970FB6F894BEBF0FBEADBFEDB75C
:1005D000FEB731961296FC92EE921197D382C282A8
:1005E00064837583868397830E94B30B2DB73EB7D0
:1005F000285F3F4F0FB6F8943EBF0FBE2DBF11C00E
:1006000088E291E06EE271E00E94C40B10923F011B
:1006100008C08EE491E06EE271E00E94C40B00938A
:100620003F0183E191E07CD7A2D6F8CEDA01923087
:1006300049F0933061F0913029F5EBEBF1E022E1E4
:1006400030E024C0EDECF1E02EE330E01FC081305B
:1006500059F0813028F0823059F0833099F40CC081
:10066000EBE0F2E084910BC0EFE0F2E0849107C090
:10067000E7E4F2E0849103C0EBEAF2E08491282FF2
:1006800030E004C0E0E0F0E020E030E0ED93FC93E7
:10069000C90108953F98479A3E98469850985898AF
:1006A00055985D9814B815B810928F01089510925E
:1006B0008B0110928C0110928D0110928E0110927C
:1006C0008701109288011092890110928A0110927C
:1006D0009101109290011092860110928501109262
:1006E000810110928201109283011092840181E0B5
:1006F00080938F0110928001089547983F9A5598F2
:100700005D9A5898509A3F98479A08959F92AF9251
:10071000BF92CF92DF92EF92FF920F931F93CF93EE
:10072000DF938C01E62ED72E63E6F62E52E0A52E3F
:1007300043E0B42ECC24C39499249A9480918F01E1
:10074000823009F4BCC0833030F4882351F081300A
:1007500009F023C10EC0833041F0843009F01DC17F
:1007600002C080E01FC184E6FCC08E2D9D2D9C013F
:10077000D1C08E2D9D2D9C01E90198C0F8012081EA
:1007800080918B0190918C01A0918D01B0918E018F
:10079000BA2FA92F982F8827422F50E060E070E0F1
:1007A000482B592B6A2B7B2B40938B0150938C0148
:1007B00060938D0170938E01E0919001F091910111
:1007C0003196F0939101E0939001E230F10551F4FC
:1007D000509386014093850183E0493E580710F00D
:1007E000F0928F0180918001813059F1813038F091
:1007F000823009F437C0833009F053C040C0E6307E
:10080000F10599F0E730F10520F4329709F04BC07B
:1008100007C0EA30F10549F03D9709F044C00BC02C
:100820004930510509F03DC03EC0405F5F40604F18
:100830007F40B9F538C0415050406040704F89F555
:100840001BC01092910110929001213650F1253673
:1008500018F0253631F503C0A092800124C0B09273
:10086000800121C080918501909186010296E81750
:10087000F907C9F42223A9F4C092800114C0349767
:1008800091F44093810150938201609383017093AE
:100890008401411551056105710519F0A0928F0180
:1008A00002C0F0928F010F5F1F4F2197209709F42C
:1008B00078C080918F01813009F460CF3FCF1DDF78
:1008C0004D9BFECF94B88091810190918201A091BF
:1008D0008301B09184018093870190938801A09354
:1008E0008901B0938A01B0928F0128CFF8018191DC
:1008F0008F0185B9589A41505040604070404093F4
:100900008701509388016093890170938A015898F8
:10091000215030402115310569F0409187015091F7
:1009200088016091890170918A0141155105610525
:100930007105E1F68091870190918801A09189016C
:10094000B0918A010097A105B10559F514B88FEF50
:1009500085B910923C0184E01CC0589A5898815087
:1009600011F0369BFACF369B0CC088E0589A589805
:100970008150E1F750985D9815B810928F0183E08F
:1009800011C080913C018F5F80933C01853618F047
:1009900083E680938F0182E005C010928F018FEF74
:1009A00001C081E0DF91CF911F910F91FF90EF90F7
:1009B000DF90CF90BF90AF909F90089586B18074E4
:1009C000089580918F01833029F020E030E040E0ED
:1009D00050E008C020918701309188014091890141
:1009E00050918A01B901CA01089580918F01833025
:1009F00029F020E030E040E050E008C02091810183
:100A0000309182014091830150918401B901CA0162
:100A1000089587E084B981E08DBD81E58CBD08959E
:100A20008EBD0DB407FEFDCF8EB50895599A519A2B
:100A300014B88FEF85B90895599A14B81CBC08955D
:100A40001F93E7DF59988FE9EBDF80E0E9DF182F8C
:100A5000599AF2DF812F1F9108959C0140919D01C9
:100A600050919E014617570718F4F90190E043C0D2
:100A70006115710511F0AB01F8CF8091E8008E7718
:100A80008093E80040E050E0F0CF80919601882309
:100A900009F447C0853009F446C08091E80083FD21
:100AA00044C08091E80082FD36C08091E80080FF5C
:100AB00022C08091F3009091F200782F60E0292FFE
:100AC00030E0262B372B07C081918093F1004150F5
:100AD00050402F5F3F4F4115510519F02830310527
:100AE00098F390E02830310509F491E08091E80016
:100AF0008E778093E8004115510539F6992329F640
:100B00000AC080919601882361F0853061F0809160
:100B1000E80083FD0AC08091E80082FFF2CF80E008
:100B2000089582E0089583E0089581E008959C018E
:100B300040919D0150919E014617570718F4F90105
:100B400090E044C06115710511F0AB01F8CF8091C0
:100B5000E8008E778093E80040E050E0F0CF80918D
:100B60009601882309F448C0853009F447C0809174
:100B7000E80083FD45C08091E80082FD37C0809188
:100B8000E80080FF23C08091F3009091F200782F5D
:100B900060E0292F30E0262B372B08C0849180930A
:100BA000F1003196415050402F5F3F4F41155105A4
:100BB00019F02830310590F390E02830310509F420
:100BC00091E08091E8008E778093E800411551050F
:100BD00031F6992321F60AC080919601882361F0AD
:100BE000853061F08091E80083FD0AC08091E800C3
:100BF00082FFF2CF80E0089582E0089583E00895B7
:100C000081E00895382F282F2EC0822F8F70809377
:100C1000E900231721F4762F942F50E006C070913D
:100C2000EC009091ED005091F00091FF1BC080917D
:100C3000EB008E7F8093EB008091ED008D7F8093A1
:100C4000ED008091EB0081608093EB007093EC00ED
:100C50009093ED005093F0008091EE0087FD02C06C
:100C600080E008952F5F273080F23F703093E900D5
:100C700081E008950F931F93CF93DF93062FEC012C
:100C800010E02AC09881992329F16B81E981FA81CA
:100C90002C81892F8F70873018F5223010F452E0A4
:100CA00001C056E040E028E030E003C04F5F220F73
:100CB000331F2E173F07D0F36295660F660F607CD7
:100CC000991F9927991F692B4295407F452B9ADFE1
:100CD000882331F01F5F25961017A0F281E001C034
:100CE00080E0DF91CF911F910F910895809197013E
:100CF00088239CF404C0809196018823B9F08091E8
:100D0000E80082FFF8CF8091E8008B778093E800BD
:100D1000089580919601882349F08091E80080FF32
:100D2000F8CF8091E8008E778093E8000895409195
:100D3000E4005091E50024E68091EC0080FF24C09F
:100D40008091E80080FD1EC080919601882311F4F7
:100D500082E00895853011F483E008958091EB00DE
:100D600085FF02C081E008958091E4009091E50044
:100D70008417950709F3222311F484E00895215084
:100D8000AC01DACF80E008958091E80082FFDCCFEB
:100D9000F9CF6BD072D0E0EEF0E08081816080838B
:100DA000A8EDB0E08C918F778C9319BCE7EDF0E063
:100DB00080818E7F80838C918F7E8C9310929501A1
:100DC0000895EF92FF920F931F934FD056D008EDE6
:100DD00010E0F80180818F77808380818068808334
:100DE00080818F7D808319BC1092960110929201B0
:100DF000109294011092930180EEE82EF12CF701ED
:100E000080818B7F8083F80180818160808380E096
:100E100060E042E0F7DEE1EEF0E080818E7F8083EB
:100E2000E2EEF0E080818160808380818860808351
:100E3000F70180818E7F8083F801808180618083CB
:100E40001F910F91FF90EF900895E8EDF0E0808101
:100E50008F7E8083E7EDF0E080818160808384E095
:100E600082BF81E080939501ACCFE8EDF0E0808116
:100E70008E7F80831092E20008951092DA00109223
:100E8000E10008951F920F920FB60F9211241F9345
:100E90002F933F934F935F936F937F938F939F9382
:100EA000AF93BF93EF93FF931091E9008091EC0013
:100EB0001092E9008091F000877F8093F000789491
:100EC000E5D01092E9008091F00088608093F000F6
:100ED0001F701093E900FF91EF91BF91AF919F9127
:100EE0008F917F916F915F914F913F912F911F91C2
:100EF0000F900FBE0F901F9018951F920F920FB674
:100F00000F9211242F933F934F935F936F937F938F
:100F10008F939F93AF93BF93EF93FF938091E100E3
:100F200082FF0AC08091E20082FF06C08091E1004A
:100F30008B7F8093E1001AD28091DA0080FF1CC081
:100F40008091D80080FF18C08091DA008E7F809356
:100F5000DA008091D90080FF0BC019BC82E089BD06
:100F600009B400FEFDCF81E080939601C0D904C092
:100F700019BC10929601BFD98091E10080FF18C082
:100F80008091E20080FF14C08091E2008E7F809308
:100F9000E2008091E20080618093E2008091D800BD
:100FA00080628093D80019BC85E080939601DED1E1
:100FB0008091E10084FF2EC08091E20084FF2AC06E
:100FC00019BC82E089BD09B400FEFDCF8091D80034
:100FD0008F7D8093D8008091E1008F7E8093E10027
:100FE0008091E2008F7E8093E2008091E200816038
:100FF0008093E20080919201882311F084E007C081
:101000008091E30087FD02C081E001C083E080930E
:101010009601ACD18091E10083FF27C08091E2006E
:1010200083FF23C08091E100877F8093E10082E00D
:1010300080939601109292018091E1008E7F8093BF
:10104000E1008091E2008E7F8093E2008091E200D7
:1010500080618093E20080E060E042E0D3DD809137
:10106000F00088608093F00081D1FF91EF91BF91F3
:10107000AF919F918F917F916F915F914F913F9130
:101080002F910F900FBE0F901F9018951F93DF9315
:10109000CF93CDB7DEB7AC970FB6F894DEBF0FBED7
:1010A000CDBFE7E9F1E08091F100819321E0EF39D4
:1010B000F207C9F761D98091E80083FF3FC18091B1
:1010C000970130919801353009F48DC0363040F4E5
:1010D0003130E1F1313070F0333009F02FC136C0DA
:1010E000383009F4FDC0393009F40CC1363009F04C
:1010F00025C19CC0803821F0823809F01FC108C08A
:1011000090919301809194018823B1F0926014C072
:1011100080919B018F70873008F010C18093E900A7
:101120008091EB0090E025E0969587952A95E1F770
:10113000982F91701092E9008091E800877F80934A
:10114000E8009093F1001092F100D5C0882319F0C7
:10115000823009F0F3C090E08F719070009721F019
:10116000029709F0EBC00CC080919901813009F021
:10117000E5C010929401333081F5809394012DC025
:1011800080919901882349F520919B012F70822F2E
:101190008150863008F0D2C02093E9008091EB00A6
:1011A00080FF1BC0333021F48091EB00806213C0BC
:1011B0008091EB0080618093EB0081E090E002C0C1
:1011C000880F991F2A95E2F78093EA001092EA00AF
:1011D0008091EB0088608093EB001092E900809191
:1011E000E800877F8BC0882309F0A8C0109199017F
:1011F0001F778091E3008078812B8093E3008091BA
:10120000E800877F8093E80071DD8091E80080FF2F
:10121000FCCF8091E30080688093E300112311F4F8
:1012200082E001C083E08093960188C080588230BC
:1012300008F084C08091990190919A0123E08C3D3F
:10124000920709F033C083E08C838AE28B837FB7F7
:10125000F894DE0115966EE040E050E011E2E62FD2
:10126000F0E010935700849140FF03C082958F7087
:101270006F5F8F70282F30E08A3018F0C901C79651
:1012800002C0C901C0968D939D934F5F5F4F44315B
:10129000510529F77FBF8091E800877F8093E800A0
:1012A000CE0103966AE270E0D8DB14C060919B0126
:1012B00070919C01AE014F5F5F4FB8D9BC010097A0
:1012C00009F43CC08091E800877F8093E800898121
:1012D0009A812DDC8091E8008B778093E8002EC006
:1012E000803861F58091E800877F8093E8008091E5
:1012F00092018093F1008091E8008E778093E8005E
:10130000F5DC1CC08823D1F4909199019230B0F49F
:101310008091E800877F8093E80090939201E6DC5B
:1013200080919201882331F48091E30087FD02C00F
:1013300081E001C084E08093960122D88091E8008A
:1013400083FF0AC08091E800877F8093E800809146
:10135000EB0080628093EB00AC960FB6F894DEBF92
:101360000FBECDBFCF91DF911F91089508951F93B8
:1013700080919601882371F01091E9008091EC0032
:101380001092E9008091E80083FF01C07FDE1F70AA
:101390001093E9001F910895FC018091960184301B
:1013A00061F584899589A689B7890097A105B1055A
:1013B00021F186818F708093E9008091E80082FF9F
:1013C0001CC04091F3002091F200942F80E030E0A7
:1013D000822B932B892B31F48091E8008B778093BB
:1013E000E8000BC08091F3009091F200382F20E0CC
:1013F000492F50E0422B532B02C040E050E0CA017D
:101400000895FC0180919601843099F5848995892D
:10141000A689B7890097A105B10559F186818F701A
:101420008093E9008091E80082FF23C04091F3009F
:101430002091F200942F80E030E0822B932B892BB7
:1014400019F46FEF7FEF04C08091F100682F70E016
:101450004091F3002091F200942F80E030E0822B45
:10146000932B892B41F48091E8008B778093E800DF
:1014700002C06FEF7FEFCB010895FB012EE0DB018F
:101480001D922A95E9F723E023832EEC3AE0318779
:10149000208720E53AE0338722879587848708955F
:1014A000FC0184859585ADDF9C0197FF02C02EEF7E
:1014B0003FEFC90108950895FC01809196018430A1
:1014C00051F584899589A689B7890097A105B10549
:1014D00011F181818F708093E9004091F300209198
:1014E000F200942F80E030E0822B932B892BA9F01F
:1014F0009091E8008091E8008E778093E80095FD58
:101500000CC015DC982F882349F48091E8008E7771
:101510008093E80003C092E001C090E0892F089515
:10152000FC0180919601843091F484899589A68983
:10153000B7890097A105B10551F081818F70809323
:10154000E9008091E80080FF02C0CF01B5CF089587
:101550001F93FC01162F809196018430E1F4848959
:101560009589A689B7890097A105B105A1F0818168
:101570008F708093E9008091E80085FD08C080911C
:10158000E8008E778093E800D2DB882329F410935B
:10159000F10080E001C082E01F910895282FFB0137
:1015A00084859585622FD4DF882319F420E030E00C
:1015B00002C02FEF3FEFC9010895CF93DF93EC01F5
:1015C0004096FC018BE0DF011D928A95E9F782E0ED
:1015D0008C83898783E08E87CE01019661E04ADBA8
:1015E000882371F0CE01069661E044DB882341F048
:1015F000CE010B9661E03EDB882319F081E001C04B
:1016000080E0DF91CF910895CF93DF93EC0180913B
:10161000E80083FFA5C0888190E020919B01309174
:101620009C012817390709F09BC0809198018132ED
:1016300069F0823220F4803209F092C03CC08232DC
:1016400009F46CC0833209F08BC07CC08091970193
:10165000813A09F085C08091E800877F8093E80097
:101660008091E80080FFFCCF8C899D89AE89BF897D
:101670008093F100292F3A2F4B2F55272093F1000B
:101680009D01442755272093F1008B2F9927AA27E6
:10169000BB278093F100888D8093F100898D809322
:1016A000F1008A8D8093F1008091E8008E7780931D
:1016B000E8001CDB55C080919701813209F050C0D1
:1016C0008091E800877F8093E80005C080919601B3
:1016D000882309F445C08091E80082FFF7CF80910C
:1016E000F1009091F1002091F1003091F1008C8B8C
:1016F0009D8B2E8B3F8B8091F100888F8091F10024
:10170000898F8091F1008A8F8091E8008B77809398
:10171000E800ECDACE010E947F0122C0809197019F
:101720008132F1F48091E800877F8093E800DEDA6F
:101730008091990190919A01998B888BCE010E949A
:101740007E010EC080919701813251F48091E800B2
:10175000877F8093E800CADACE0160919901ABDE01
:10176000DF91CF910895A0E0B0E0E8EBFBE0B4C2D8
:101770009E01275F3F4F8D819E816F817885A901F2
:101780002DD02096E2E0C4C2EF92FF920F931F93F8
:10179000CF93DF937C018B01DB0113968C9181FD4C
:1017A00003C0CFEFDFEF15C0C0E0D0E00EC0D8011E
:1017B0001896ED91FC911997B8010995892B11F0B4
:1017C000CFEFDFEF0894E11CF11CF701849188232F
:1017D00071F7CE01CDB7DEB7E6E096C2ABE0B0E080
:1017E000E3EFFBE069C23C012B015A01FC011782C7
:1017F0001682838181FD03C06FEF7FEFB9C19AE04C
:10180000892E1E010894211C311CF3012381F20151
:1018100023FD859123FF81912F01882309F4A5C120
:10182000853239F423FD859123FF81912F01853283
:1018300021F490E0B301B6D1E8CF982FFF24EE2435
:101840009924FFE1FF15D0F09B3269F09C3228F417
:10185000903259F0933291F40EC09D3249F090339A
:1018600069F441E024C052E0F52A84E0F82A28C057
:1018700098E0F92A25C0E0E1FE2A22C0F7FC29C041
:10188000892F80538A3070F4F6FE05C0989C902C06
:101890001124980E15C0E89CE02C1124E80EF0E20B
:1018A000FF2A0EC09E3229F4F6FC5FC140E4F42A00
:1018B00007C09C3619F450E8F52A02C0983649F45E
:1018C000F20123FD959123FF91912F01992309F0B6
:1018D000B8CF892F8554833018F08052833038F484
:1018E00044E050E0A40EB51E5FE359830FC0933669
:1018F00031F0933779F0933509F052C01FC0F501EC
:101900008081898342E050E0A40EB51E610101E0B0
:1019100010E011C0F501C080D180F6FC03C06FEF6C
:101920007FEF02C0692D70E042E050E0A40EB51ECA
:10193000C6012DD18C015FE7F52213C0F501C080EF
:10194000D180F6FC03C06FEF7FEF02C0692D70E01D
:1019500042E050E0A40EB51EC6010ED18C0150E845
:10196000F52AF3FE06C018C080E290E0B3011AD158
:10197000EA948E2D90E008171907B0F30DC0F60118
:10198000F7FC8591F7FE81916F0190E0B3010AD1D8
:10199000E110EA94015010400115110581F7E2C0F1
:1019A000943611F0993661F5F7FE08C0F5012081F3
:1019B00031814281538184E090E00AC0F501808149
:1019C00091819C01442737FD4095542F82E090E09F
:1019D000A80EB91E9FE6F92257FF09C05095409501
:1019E000309521953F4F4F4F5F4FE0E8FE2ACA01E7
:1019F000B901A1012AE030E001D1D82ED2183FC0B0
:101A0000953729F41F2D1F7E2AE030E01DC01F2DC1
:101A1000197F9F3661F0903720F4983509F0A5C002
:101A20000FC0903739F0983709F09FC004C028E004
:101A300030E00AC0106114FD146020E130E004C001
:101A400014FD166020E132E017FF08C0F501608147
:101A500071818281938144E050E008C0F50180816A
:101A60009181BC0180E090E042E050E0A40EB51E00
:101A7000A101C4D0D82ED2188FE7F82EF122F6FE9D
:101A80000BC05EEFF522D91438F4F4FE07C0F2FC67
:101A900005C08FEEF82202C01D2D01C0192DF4FEE5
:101AA0000DC0FE01ED0DF11D8081803319F499EE1A
:101AB000F92208C01F5FF2FE05C003C08F2D867893
:101AC00009F01F5F0F2DF3FC13C0F0FE0EC01E15B2
:101AD00010F09D2C0AC09D2C9E0C911A1E2D05C045
:101AE00080E290E0B3015ED01F5F1E15C8F304C012
:101AF0001E1510F4E11A01C0EE2404FF0EC080E3AD
:101B000090E0B3014FD002FF1BC001FD03C088E786
:101B100090E00EC088E590E00BC0802F867881F0C1
:101B200001FF02C08BE201C080E2F7FC8DE290E091
:101B3000B30138D005C080E390E0B30133D09A946C
:101B4000D914C8F3DA94F101ED0DF11D808190E014
:101B5000B30128D0DD20B1F705C080E290E0B301E9
:101B600021D0EA94EE20C9F750CEF3016681778147
:101B7000CB012B96E2E1BCC0FC01059061507040A6
:101B80000110D8F7809590958E0F9F1F0895FC0146
:101B90006150704001900110D8F7809590958E0F9C
:101BA0009F1F08950F931F93CF93DF938C01EB0139
:101BB0008B8181FF1BC082FF0DC02E813F818C81F4
:101BC0009D812817390764F4E881F9810193F9832D
:101BD000E88306C0E885F985802F0995892B31F4C3
:101BE0008E819F8101969F838E8302C00FEF1FEF2E
:101BF000C801DF91CF911F910F910895FA01AA2793
:101C0000283051F1203181F1E8946F936E7F6E5F3F
:101C10007F4F8F4F9F4FAF4FB1E03ED0B4E03CD0ED
:101C2000670F781F891F9A1FA11D680F791F8A1FD0
:101C3000911DA11D6A0F711D811D911DA11D20D037
:101C400009F468943F912AE0269F11243019305DF1
:101C50003193DEF6CF010895462F4770405D4193E2
:101C6000B3E00FD0C9F7F6CF462F4F70405D4A332F
:101C700018F0495D31FD4052419302D0A9F7EACFF7
:101C8000B4E0A6959795879577956795BA95C9F726
:101C900000976105710508959B01AC010A2E069419
:101CA0005795479537952795BA95C9F7620F731FD2
:101CB000841F951FA01D08952F923F924F925F920F
:101CC0006F927F928F929F92AF92BF92CF92DF924C
:101CD000EF92FF920F931F93CF93DF93CDB7DEB7B1
:101CE000CA1BDB0B0FB6F894DEBF0FBECDBF099445
:101CF0002A88398848885F846E847D848C849B849C
:101D0000AA84B984C884DF80EE80FD800C811B81A9
:101D1000AA81B981CE0FD11D0FB6F894DEBF0FBED8
:0A1D2000CDBFED010895F894FFCF48
:101D2A0020253278000D25376C75202F0025376C59
:101D3A007520000083400000010440000001820871
:0E1D4A0000000100000000000000000000008A
:00000001FF
