:100000005CC1000076C1000074C1000072C1000034
:1000100070C100006EC100006CC100006AC1000028
:1000200068C1000066C100000C94C0080C948508EB
:1000300060C100005EC100005CC100005AC1000048
:1000400058C1000056C1000054C1000052C1000058
:1000500050C100004EC100004CC100004AC1000068
:1000600048C1000046C1000044C1000042C1000078
:1000700040C100003EC100003CC100003AC1000088
:1000800038C1000036C1000034C1000032C1000098
:1000900030C100002EC100002CC100002AC10000A8
:1000A00028C1000026C1000024C100000D0A0A2A50
:1000B000204D6F6A6F204F53202A0D0A2863292094
:1000C000323032312C20522E2054726170700A006E
:1000D0000D0A3E2000203C2D203F000D0A41776193
:1000E0006974696E672064617461000D0A537563F9
:1000F00063657373000D0A4641494C000D0A436F56
:100100006E66696720464C41534820697320656DCF
:10011000707479000D0A4E6F742061204D6963720E
:100120006F6368697020464C415348000D0A496E60
:1001300076616C69642062697473747265616D00C4
:100140000D0A436F6D6D616E64733A0D0A20563A65
:1001500020566F6C6174696C6520436F6E666967C9
:100160000D0A20573A20577269746520746F204633
:100170004C4153480D0A20433A20436F6E6669672D
:100180002066726F6D20464C4153480D0A20693A33
:1001900020496E666F2061626F757420464C415332
:1001A000480D0A203F3A2048656C700D0A000D0A80
:1001B000000D0A001201100102000008DD29018073
:1001C00001000102030109023E00020100C0FA0918
:1001D00004000001020201000524001001042402B1
:1001E000060524060001070582030800FF09040133
:1001F00000020A000000070504024000050705830D
:100200000240000504030904360345006D00620046
:100210006500640064006500640020004D00690012
:10022000630072006F002C002000520065006E0019
:100230006500200054007200610070007000000032
:10024000620341006C006300680069007400720082
:10025000790020004D006F006A006F0020005600FA
:100260003300200043006F006E00660069006700E5
:10027000200054006F006F006C002C002000410033
:1002800054006D00650067006100330032005500C6
:100290003400200040002000380020004D004800BD
:1002A0007A000000060330003100000000090FF062
:1002B0000FF00FF00FF00000010011241FBECFEF70
:1002C000DAE0DEBFCDBF11E0A0E0B1E0ECECFAE196
:1002D00002C005900D92AC31B107D9F711E0ACE145
:1002E000B1E001C01D92AC33B107E1F750D00C94DE
:1002F000640D86CE089510922A0108950895FC0198
:1003000084899589A689B789803BF4E09F07F0E04E
:10031000AF07F0E0BF0731F080569940A040B040F1
:1003200051F514C079D6F89487E797E790930108C0
:10033000809300082CE088E190E00FB6F894A8952F
:10034000809360000FBE20936000FFCFEDD264D693
:10035000F89488E898E890930108809300082CE0CE
:1003600088E190E00FB6F894A895809360000FBEE6
:1003700020936000FFCF81E080932A01089580E000
:1003800091E00C94480C80E091E00C94210C2F92A9
:100390003F924F925F926F927F928F929F92AF9215
:1003A000BF92CF92DF92EF92FF920F931F93DF9352
:1003B000CF93CDB7DEB7C150D3400FB6F894DEBFB0
:1003C0000FBECDBF84B7877F84BF88E10FB6F89496
:1003D00080936000109260000FBE80E090E020E803
:1003E0000FB6F89420936100809361000FBE91D204
:1003F0005CD380E091E06CE171E00E94810B10928F
:100400002A0166D67894CF5FDC4F1882C150D34062
:10041000AA24BB2465016624772443011E010894A5
:10042000211C311C80912A01853009F4DFC08630FF
:1004300088F48230A1F1833030F48823F1F08130E8
:1004400009F02EC220C0833009F456C0843009F070
:1004500027C25BC0883009F48EC1893038F48630F9
:1004600009F4CDC0873009F01BC233C1893009F4CB
:1004700098C18A3009F014C2DEC18AD2882309F0FB
:100480000FC281E070C08CEA90E06CE171E00E94E4
:100490001F0D80E491E06CE171E00E941F0D08D314
:1004A0008F3B31F084E191E06CE171E00E941F0D1F
:1004B000CE018F5F9E4F40E050E060E070E028EC9E
:1004C00030E003D3CE018F5F9E4F61E664D28C0192
:1004D000009761F081EB91E06CE171E00E941F0DEB
:1004E000C8016CE171E00E94F70C06C08CEF90E04F
:1004F0006CE171E00E941F0D80ED90E06CE171E015
:100500000E941F0D84E080932A0180E091E00E9408
:10051000100B082F813011F0182F65C023E02093B5
:100520002A0180E091E00E94450B182F80E091E0C5
:10053000612F0E94EC0B133449F1143448F41D3040
:1005400009F4AEC11F3359F01A3009F040C0A8C1F8
:10055000173561F1193631F01635C9F507C000932A
:100560002A019EC182E080932A019AC18BED90E01E
:100570006CE171E00E941F0D35E030932A0185E7A0
:10058000CF5FDC4F8883C150D3408AC18EEA91E0AF
:100590006CE171E00E941F0D95E090932A01A3E7A2
:1005A000CF5FDC4FA883C150D3407AC1C3D28BED5B
:1005B00090E06CE171E00E941F0D89E080932A01B8
:1005C000AA24BB24650166247724430169C185ED13
:1005D00090E06CE171E00E941F0D62C180E091E04B
:1005E0000E94450B11501123C9F75AC1B6E0B093D0
:1005F0002A01AA24BB246501662477244301CF5F26
:10060000DC4FE881C150D340E337F1F0E53759F5CD
:10061000860175010DC080E091E00E94450BF1015B
:10062000EE0DFF1D80830894E11CF11C011D111DBE
:1006300080E091E0F5D72E2D2A1930E028173907F0
:1006400050F35701680112C0C101B601A50120E0B5
:1006500031E03BD280E091E0A0E0B0E0A80EB91E0E
:10066000CA1EDB1E03C093E090932A01A1ECAA16D8
:10067000B104C104D10408F413C1C10165E68BD1F2
:100680008C010097E1F0BBD13B014C0194E0E92ED5
:10069000F12CE00EF11E81010A0D1B1D0E191F0920
:1006A000C801A0E0B0E0681A790A8A0A9B0A3CD126
:1006B000C701B80143D1B7E0B0932A01F1C08CE281
:1006C00091E06CE171E00E941F0DE3E0E0932A01EC
:1006D000E7C0CF5FDC4FF881C150D340F537C1F49C
:1006E00080E091E09DD77C0155240CC080E091E032
:1006F000CCD721E031E02C0F3D1F020F131FD80192
:100700008C935394052D10E00E151F0578F313C03C
:10071000CE018F5F9E4FB601A50120E032E0D5D11A
:1007200080E092E0A0E0B0E0A80EB91ECA1EDB1E79
:10073000E12C82E0F82EC701A0E0B0E0681679064F
:100740008A069B0628F4730166247724430104C0BB
:10075000681A790A8A0A9B0ACE018F5F9E4FB701F9
:10076000EDD0611471048104910409F099C098E0FE
:1007700090932A0195C0F1D0882349F48BEE90E044
:100780006CE171E00E941F0D10922A0189C085EF73
:1007900090E06CE171E00E941F0DA3E0A0932A019C
:1007A0007FC080E091E03CD72C01860175010CC030
:1007B00080E091E06AD7F101EE0DFF1D808308947F
:1007C000E11CF11C011D111D8E2D8A1990E084156C
:1007D000950570F3B1ECEB16F1040105110540F13C
:1007E000C10165E6D8D06C010097C9F008D13B0182
:1007F0004C01C218D308C601AA2797FDA095BA2FAD
:10080000680E791E8A1E9B1EC10140E050E060E028
:1008100070E09701A4D1EAE0E0932A0109C08CE2DC
:1008200091E06CE171E00E941F0DF3E0F0932A016A
:100830005701680135C080E091E0F2D67C01009755
:1008400009F155240CC080E091E01FD721E031E090
:100850002C0F3D1F020F131FD8018C935394052DAD
:1008600010E00E151F0578F3CE018F5F9E4FB60185
:10087000A501970174D1C701A0E0B0E0A80EB91E90
:10088000CA1EDB1EA614B704C804D90448F0B5E09C
:10089000B0932A01E3E7CF5FDC4FE883C150D34038
:1008A00080E091E081D7A7D6BDCDDA01923049F042
:1008B000933061F0913029F5E4EBF1E022E130E092
:1008C00024C0E6ECF1E02EE330E01FC0813059F0A7
:1008D000813028F0823059F0833099F40CC0E4E084
:1008E000F2E084910BC0E8E0F2E0849107C0E0E41C
:1008F000F2E0849103C0E4EAF2E08491282F30E032
:1009000004C0E0E0F0E020E030E0ED93FC93C901AA
:100910000895479A3F9A3E98469A50985898559805
:100920005D9814B815B80895479882E08A95F1F754
:100930005898509A479A4D9BFECF0895FC018FEF2F
:1009400084B99B0106C0819185B9589A5898215065
:10095000304021153105B9F7089514B88FEF85B9E6
:1009600088E08A95F1F780E197E204C0589A589898
:10097000019711F0369BFACF369902C08FEF089598
:1009800088E0589A58988150E1F7C3DF80E00895D5
:1009900086B180740895CF93DF93EC012CEA32E0A6
:1009A000F90194918881891721F521962F5F3F4F96
:1009B000F2E0293B3F07A1F746E0DE01119688816E
:1009C000861729F46536B9F0DE01139614C05981F3
:1009D000CD01019611967C91415059F0352F20E0C0
:1009E000EC012196872F90E0822B932BC80FD91F03
:1009F000E4CFA0E0B0E0CD01DF91CF910895FC01FC
:100A000010922B0110922C0110922D0110922E01A8
:100A10000097F9F064E0219130E040E050E08091EF
:100A20002B0190912C01A0912D01B0912E01BA2F94
:100A3000A92F982F8827282B392B4A2B5B2B209303
:100A40002B0130932C0140932D0150932E016150C6
:100A500011F760912B0170912C0180912D019091E3
:100A60002E010895289A87E084B980E58CBD81E045
:100A70008DBD0895599A14B81CBC08958EBD0DB44F
:100A800007FEFDCF8EB50895599885E0F7DF80E029
:100A9000F5DF80FDFCCF599A0895599882E08A9538
:100AA000F1F71B9BFECF599A0895599A519A0895D0
:100AB0001F93D8DF59988FE9E1DF80E0DFDF182F3F
:100AC000599AD8DF812F1F910895CF92DF92EF922C
:100AD000FF920F931F93CF93DF93EC017A018B0169
:100AE000D22EC32EBFDF599883E0C8DFC801AA27E2
:100AF000BB27C4DFBB27A12F902F8F2DBFDF8E2DEB
:100B0000BDDF2D2D3C2DC9016C0106C080E0B6DF94
:100B100089930894C108D108C114D104B9F7599A2E
:100B2000A9DFDF91CF911F910F91FF90EF90DF90A0
:100B3000CF90089597DF599886E0A0DF599A599889
:100B400081E09CDF80E09ADF599A599886E096DF31
:100B5000599A599880E692DF599A96DF8BCF8F92F7
:100B60009F92AF92BF92CF92DF92EF92FF920F933C
:100B70001F93CF93DF93EC017A018B01590121156B
:100B8000310509F4A0C06EDFC70181709070892B18
:100B9000F1F0599886E072DF599A599882E06EDF39
:100BA000C801AA27BB276ADFBB27A12F902F8F2D53
:100BB00065DF8E2D63DF899161DF599A0894E11C0E
:100BC000F11C011D111D0894A108B1085DDF82E030
:100BD000A816B10408F45EC0599880E74FDF599A0F
:100BE000599886E04BDF599A59988DEA47DFC8013A
:100BF000AA27BB2743DFBB27A12F902F8F2D3EDFD6
:100C00008E2D3CDF88813ADF21964E010894811CAD
:100C1000911C2197898132DF599A3FDF650109C014
:100C200059988DEA2BDF888129DF898127DF599A3E
:100C300034DFAEEFBFEFCA0EDB1E2296B2E0CB165A
:100C4000D10470F7C50102979C0136952795B9012B
:100C5000660F771F5C01A61AB70A82E090E0A0E059
:100C6000B0E0E80EF91E0A1F1B1F40E050E0220F03
:100C7000331F441F551FE20EF31E041F151FE4010E
:100C8000C60FD71F599884E0F9DE599A599880E821
:100C9000F5DE599AAB28B1F0599886E0EFDE599A03
:100CA000599882E0EBDEC801AA27BB27E7DEBB2705
:100CB000A12F902F8F2DE2DE8E2DE0DE8881DEDEEB
:100CC000599AE2DED7DEDF91CF911F910F91FF900D
:100CD000EF90DF90CF90BF90AF909F908F9008954E
:100CE0009C0140913A0150913B014617570718F477
:100CF000F90190E043C06115710511F0AB01F8CF27
:100D00008091E8008E778093E80040E050E0F0CFDB
:100D100080913301882309F447C0853009F446C027
:100D20008091E80083FD44C08091E80082FD36C0D8
:100D30008091E80080FF22C08091F3009091F20042
:100D4000782F60E0292F30E0262B372B07C08191C8
:100D50008093F100415050402F5F3F4F41155105A6
:100D600019F02830310598F390E02830310509F466
:100D700091E08091E8008E778093E800411551055D
:100D800039F6992329F60AC080913301882361F04E
:100D9000853061F08091E80083FD0AC08091E80011
:100DA00082FFF2CF80E0089582E0089583E0089505
:100DB00081E008959C0140913A0150913B01461712
:100DC000570718F4F90190E044C06115710511F05E
:100DD000AB01F8CF8091E8008E778093E80040E087
:100DE00050E0F0CF80913301882309F448C085306A
:100DF00009F447C08091E80083FD45C08091E80078
:100E000082FD37C08091E80080FF23C08091F3000D
:100E10009091F200782F60E0292F30E0262B372BBD
:100E200008C084918093F1003196415050402F5F6B
:100E30003F4F4115510519F02830310590F390E0EE
:100E40002830310509F491E08091E8008E77809395
:100E5000E8004115510531F6992321F60AC0809129
:100E60003301882361F0853061F08091E80083FDD3
:100E70000AC08091E80082FFF2CF80E0089582E00E
:100E8000089583E0089581E00895382F282F2EC01B
:100E9000822F8F708093E900231721F4762F942FEF
:100EA00050E006C07091EC009091ED005091F00080
:100EB00091FF1BC08091EB008E7F8093EB008091AF
:100EC000ED008D7F8093ED008091EB008160809339
:100ED000EB007093EC009093ED005093F000809144
:100EE000EE0087FD02C080E008952F5F273080F27A
:100EF0003F703093E90081E008950F931F93CF93E3
:100F0000DF93062FEC0110E02AC09881992329F184
:100F10006B81E981FA812C81892F8F70873018F5D8
:100F2000223010F452E001C056E040E028E030E00A
:100F300003C04F5F220F331F2E173F07D0F3629578
:100F4000660F660F607C991F9927991F692B429540
:100F5000407F452B9ADF882331F01F5F25961017BD
:100F6000A0F281E001C080E0DF91CF911F910F914D
:100F700008958091340188239CF404C0809133014A
:100F80008823B9F08091E80082FFF8CF8091E800D3
:100F90008B778093E800089580913301882349F08E
:100FA0008091E80080FFF8CF8091E8008E778093F1
:100FB000E80008954091E4005091E50024E6809116
:100FC000EC0080FF24C08091E80080FD1EC080916D
:100FD0003301882311F482E00895853011F483E011
:100FE00008958091EB0085FF02C081E00895809113
:100FF000E4009091E5008417950709F3222311F48A
:1010000084E008952150AC01DACF80E0089580910A
:10101000E80082FFDCCFF9CF6BD072D0E0EEF0E0D9
:10102000808181608083A8EDB0E08C918F778C9374
:1010300019BCE7EDF0E080818E7F80838C918F7EFC
:101040008C93109232010895EF92FF920F931F93A9
:101050004FD056D008ED10E0F80180818F77808363
:1010600080818068808380818F7D808319BC10920D
:10107000330110922F01109231011092300180EE55
:10108000E82EF12CF70180818B7F8083F80180812D
:101090008160808380E060E042E0F7DEE1EEF0E036
:1010A00080818E7F8083E2EEF0E0808181608083AA
:1010B000808188608083F70180818E7F8083F80142
:1010C0008081806180831F910F91FF90EF90089540
:1010D000E8EDF0E080818F7E8083E7EDF0E08081B5
:1010E0008160808384E082BF81E080933201ACCF55
:1010F000E8EDF0E080818E7F80831092E200089519
:101100001092DA001092E10008951F920F920FB62C
:101110000F9211241F932F933F934F935F936F93DD
:101120007F938F939F93AF93BF93EF93FF93109110
:10113000E9008091EC001092E9008091F000877F37
:101140008093F0007894E5D01092E9008091F0004F
:1011500088608093F0001F701093E900FF91EF9179
:10116000BF91AF919F918F917F916F915F914F91BF
:101170003F912F911F910F900FBE0F901F901895C8
:101180001F920F920FB60F9211242F933F934F93FC
:101190005F936F937F938F939F93AF93BF93EF93DF
:1011A000FF938091E10082FF0AC08091E20082FFFC
:1011B00006C08091E1008B7F8093E1001BD280917B
:1011C000DA0080FF1CC08091D80080FF18C0809199
:1011D000DA008E7F8093DA008091D90080FF0BC007
:1011E00019BC82E089BD09B400FEFDCF81E0809387
:1011F000330180D804C019BC109233017CD880918F
:10120000E10080FF18C08091E20080FF14C080914F
:10121000E2008E7F8093E2008091E2008061809303
:10122000E2008091D80080628093D80019BC85E0EC
:1012300080933301DFD18091E10084FF2EC0809143
:10124000E20084FF2AC019BC82E089BD09B400FE17
:10125000FDCF8091D8008F7D8093D8008091E100F0
:101260008F7E8093E1008091E2008F7E8093E20088
:101270008091E20081608093E20080912F018823B9
:1012800011F084E007C08091E30087FD02C081E097
:1012900001C083E080933301ADD18091E10083FFF1
:1012A00027C08091E20083FF23C08091E100877F07
:1012B0008093E10082E08093330110922F018091AE
:1012C000E1008E7F8093E1008091E2008E7F809329
:1012D000E2008091E20080618093E20080E060E0C3
:1012E00042E0D3DD8091F00088608093F00082D1ED
:1012F000FF91EF91BF91AF919F918F917F916F91EE
:101300005F914F913F912F910F900FBE0F901F90C3
:1013100018951F93DF93CF93CDB7DEB7AC970FB679
:10132000F894DEBF0FBECDBFE4E3F1E08091F100A1
:10133000819321E0EC33F207C9F721D88091E800CE
:1013400083FF40C18091340130913501353009F47B
:101350008DC0363040F43130E1F1313070F033304F
:1013600009F030C136C0383009F4FDC0393009F415
:101370000CC1363009F026C19CC0803821F082387B
:1013800009F020C108C0909130018091310188237B
:10139000B1F0926014C0809138018F70873008F0EE
:1013A00011C18093E9008091EB0090E025E09695D3
:1013B00087952A95E1F7982F91701092E900809116
:1013C000E800877F8093E8009093F1001092F1008D
:1013D000D5C0882319F0823009F0F4C090E08F71F5
:1013E0009070009721F0029709F0ECC00CC080913A
:1013F0003601813009F0E6C010923101333081F5B9
:10140000809331012DC080913601882349F52091C8
:1014100038012F70822F8150863008F0D3C020937E
:10142000E9008091EB0080FF1BC0333021F48091F4
:10143000EB00806213C08091EB0080618093EB0031
:1014400081E090E002C0880F991F2A95E2F780930F
:10145000EA001092EA008091EB0088608093EB0034
:101460001092E9008091E800877F8BC0882309F003
:10147000A9C0109136011F778091E3008078812BFD
:101480008093E3008091E800877F8093E80071DD1E
:101490008091E80080FFFCCF8091E300806880931A
:1014A000E300112311F482E001C083E08093330153
:1014B00089C08058823008F085C0809136019091B3
:1014C000370123E08C3D920709F033C083E08C8321
:1014D0008AE28B837FB7F894DE0115966EE040E0D8
:1014E00050E011E2E62FF0E010935700849140FFA6
:1014F00003C082958F706F5F8F70282F30E08A3025
:1015000018F0C901C79602C0C901C0968D939D937A
:101510004F5F5F4F4431510529F77FBF8091E8004D
:10152000877F8093E800CE0103966AE270E0D8DB03
:1015300014C06091380170913901AE014F5F5F4F67
:10154000B4D9BC01009709F43DC08091E800877FC1
:101550008093E80089819A812DDC8091E8008B7767
:101560008093E8002FC0803869F58091E800877F7C
:101570008093E80080912F018093F1008091E80032
:101580008E778093E800F5DC1DC08823D9F4909114
:1015900036019230B8F48091E800877F8093E800AC
:1015A00090932F01E6DC80912F01882331F4809104
:1015B000E30087FD02C081E001C084E08093330135
:1015C0000E94C3018091E80083FF0AC08091E80077
:1015D000877F8093E8008091EB0080628093EB002E
:1015E000AC960FB6F894DEBF0FBECDBFCF91DF91A2
:1015F0001F91089508951F9380913301882371F0FE
:101600001091E9008091EC001092E9008091E800CF
:1016100083FF01C07EDE1F701093E9001F910895C3
:10162000FC0180913301843061F584899589A68914
:10163000B7890097A105B10521F186818F7080934C
:10164000E9008091E80082FF1CC04091F3002091E6
:10165000F200942F80E030E0822B932B892B31F421
:101660008091E8008B778093E8000BC08091F300B5
:101670009091F200382F20E0492F50E0422B532B5D
:1016800002C040E050E0CA010895FC01809133019E
:10169000843099F584899589A689B7890097A10531
:1016A000B10559F186818F708093E9008091E8003F
:1016B00082FF23C04091F3002091F200942F80E03C
:1016C00030E0822B932B892B19F46FEF7FEF04C04E
:1016D0008091F100682F70E04091F3002091F200BA
:1016E000942F80E030E0822B932B892B41F4809162
:1016F000E8008B778093E80002C06FEF7FEFCB01AB
:101700000895FB012EE0DB011D922A95E9F723E005
:10171000238322E13CE03187208724E93BE03387C3
:101720002287958784870895FC0184859585ADDFA0
:101730009C0197FF02C02EEF3FEFC9010895089565
:10174000FC0180913301843051F584899589A68903
:10175000B7890097A105B10511F181818F70809340
:10176000E9004091F3002091F200942F80E030E0F6
:10177000822B932B892BA9F09091E8008091E800AF
:101780008E778093E80095FD0CC014DC982F882399
:1017900049F48091E8008E778093E80003C092E0DE
:1017A00001C090E0892F0895FC01809133018430BD
:1017B00091F484899589A689B7890097A105B10517
:1017C00051F081818F708093E9008091E80080FF63
:1017D00002C0CF01B5CF08951F93FC01162F809151
:1017E00033018430E1F484899589A689B78900970B
:1017F000A105B105A1F081818F708093E9008091EE
:10180000E80085FD08C08091E8008E778093E800AD
:10181000D1DB882329F41093F10080E001C082E03D
:101820001F910895282FFB0184859585622FD4DFB1
:10183000882319F420E030E002C02FEF3FEFC90108
:101840000895CF93DF93EC014096FC018BE0DF011C
:101850001D928A95E9F782E08C83898783E08E87E1
:10186000CE01019661E049DB882371F0CE01069636
:1018700061E043DB882341F0CE010B9661E03DDB64
:10188000882319F081E001C080E0DF91CF910895B5
:10189000CF93DF93EC018091E80083FFA5C088819E
:1018A00090E020913801309139012817390709F06B
:1018B0009BC080913501813269F0823220F4803200
:1018C00009F092C03CC0823209F46CC0833209F046
:1018D0008BC07CC080913401813A09F085C0809131
:1018E000E800877F8093E8008091E80080FFFCCFCC
:1018F0008C899D89AE89BF898093F100292F3A2F69
:101900004B2F55272093F1009D0144275527209305
:10191000F1008B2F9927AA27BB278093F100888D90
:101920008093F100898D8093F1008A8D8093F1007E
:101930008091E8008E778093E8001BDB55C0809192
:101940003401813209F050C08091E800877F809394
:10195000E80005C080913301882309F445C08091D7
:10196000E80082FFF7CF8091F1009091F100209183
:10197000F1003091F1008C8B9D8B2E8B3F8B8091F1
:10198000F100888F8091F100898F8091F1008A8F1A
:101990008091E8008B778093E800EBDACE010E941B
:1019A0007F0122C0809134018132F1F48091E800FE
:1019B000877F8093E800DDDA8091360190913701CE
:1019C000998B888BCE010E947E010EC080913401DC
:1019D000813251F48091E800877F8093E800C9DA72
:1019E000CE0160913601ABDEDF91CF910895EF9289
:1019F000FF920F931F93CF93DF937C018B01DB0149
:101A000013968C9181FD03C0CFEFDFEF13C0C0E0D0
:101A1000D0E00BC0D8011896ED91FC911997B80150
:101A20000995892B11F0CFEFDFEFF70181917F014D
:101A3000882381F7CE01CDB7DEB7E6E036C0EF925E
:101A4000FF920F931F93CF93DF937C018B01DB01F8
:101A500013968C9181FD03C0CFEFDFEF15C0C0E07E
:101A6000D0E00EC0D8011896ED91FC911997B801FD
:101A70000995892B11F0CFEFDFEF0894E11CF11CE1
:101A8000F7018491882371F7CE01CDB7DEB7E6E088
:101A90000CC02A88398848885F846E847D848C8451
:101AA0009B84AA84B984C884DF80EE80FD800C8189
:101AB0001B81AA81B981CE0FD11D0FB6F894DEBF6C
:0C1AC0000FBECDBFED010895F894FFCFDC
:101ACC000083400000010440000001820800000176
:0C1ADC00000000000000000000000000FE
:00000001FF
