:100000005EC1000078C1000076C1000074C100002C
:1000100072C1000070C100006EC100006CC1000020
:100020006AC1000068C1000008C70000CBC600001C
:1000300062C1000060C100005EC100005CC1000040
:100040005AC1000058C1000056C1000054C1000050
:1000500052C1000050C100004EC100004CC1000060
:100060004AC1000048C1000046C1000044C1000070
:1000700042C1000040C100003EC100003CC1000080
:100080003AC1000038C1000036C1000034C1000090
:1000900032C1000030C100002EC100002CC10000A0
:1000A0002AC1000028C1000026C100000D0A0A0A6A
:1000B0002A205370617274616E20436F6E666967A7
:1000C000757261746F72202A0A0D286329203230FC
:1000D00032312C2052656EE92054726170700A0032
:1000E0000D0A3E2000203C2D3F000D0A465047419E
:1000F00020636F6E66696775726174696F6E2072D6
:10010000656164792C206177616974696E6720622A
:10011000697473747265616D20282E626974292078
:1001200066696C652E0D0A002A2A20465047412038
:100130007375636365737366756C6C7920636F6E3A
:10014000666967757265642E202A2A002A2A20466D
:1001500050474120636F6E66696775726174696F9D
:100160006E206661696C656421202A2A000D0A41AF
:100170006363657074656420636F6D6D616E647335
:100180003A0D0A20553A205553422D436F6E666949
:10019000677572652028636F6E6669677572652082
:1001A000465047412066726F6D2066696C65290D67
:1001B0000A203F3A205468697320276D616E706190
:1001C0006765270A001201100102000008DD2901FD
:1001D0008001000102030109023E00020100C0FA91
:1001E000090400000102020100052400100104249A
:1001F00002060524060001070582030800FF090422
:100200000100020A0000000705040240000507057E
:10021000830240000504030904360345006D0062B3
:10022000006500640064006500640020004D006902
:1002300000630072006F002C002000520065006E09
:100240000065002000540072006100700070000022
:1002500000620341006C0063006800690074007272
:1002600000790020004D006F006A006F00200056EA
:10027000003300200043006F006E006600690067D5
:1002800000200054006F006F006C002C0020004123
:100290000054006D006500670061003300320055B6
:1002A000003400200040002000380020004D0048AD
:1002B000007A000000060330003100000000112425
:1002C0001FBECFEFDAE0DEBFCDBF11E0A0E0B1E0AE
:1002D000EAE6FCE102C005900D92A832B107D9F719
:1002E00011E0A8E2B1E001C01D92A839B107E1F721
:1002F0003ED00C94330E84CE81E080933801089573
:100300001092380108950895FC0184899589A68981
:10031000B789803BF4E09F07F0E0AF07F0E0BF074C
:1003200031F080569940A040B040C1F414C0D1D4FF
:10033000F89487E797E790930108809300082CE0F2
:1003400088E190E00FB6F894A895809360000FBE06
:1003500020936000FFCF81E08093380108958DE005
:1003600091E00C94A40A8DE091E00C947D0A6F92C8
:100370007F928F929F92AF92BF92CF92DF92EF9235
:10038000FF920F931F93CF93DF9384B7877F84BF30
:1003900088E10FB6F89480936000109260000FBE61
:1003A00080E090E020E80FB6F894209361008093FD
:1003B00061000FBE3BD1109238018DE091E068E200
:1003C00071E0FBD7E2D4789402E058E2E52E51E0E8
:1003D000F52E9924939444E0742E33E0632E25E0A7
:1003E000822E90E0A92E91E0B92E87E0C82E81E000
:1003F000D82E8DE091E070D790933701809336012D
:10040000892B91F010E007C08DE091E09AD7C75C8E
:10041000DE4F88831F5FC12FD0E08091360190911D
:100420003701C817D90780F380913801823011F164
:10043000833030F4882369F0813009F0BEC00EC0EB
:10044000843009F448C08430E8F0853009F0B5C044
:100450004CC078D2882309F0B0C033C08CEA90E059
:1004600068E271E00E94640B8DE691E068E271E061
:100470000E94640B80EE90E068E271E00E94640BE1
:10048000609238018091360190913701019709F00F
:1004900094C08DE091E060913901FAD70093380162
:1004A000809139018D3009F488C08E3018F48A307B
:1004B00059F483C08F3329F0853531F470923801B7
:1004C0007CC09092380179C085EE90E068E271E0DE
:1004D0000E94640B72C0B7D08AEE90E068E271E0CF
:1004E0000E94640B8092380168C06091360170915F
:1004F000370189E391E0CDD0833009F453C08F3FB9
:1005000009F453C0813009F058C0809136019091B0
:100510003701892B09F451C018D22DB73EB72850A6
:1005200030400FB6F8943EBF0FBE2DBFEDB7FEB7FB
:100530003196ADB7BEB71296FC92EE921197B38288
:10054000A28264837583868397830E94530B2DB7A1
:100550003EB7285F3F4F0FB6F8943EBF0FBE2DBF8A
:1005600008D2ADB7BEB718970FB6F894BEBF0FBE8E
:10057000ADBFEDB7FEB731961296FC92EE92119791
:10058000D382C28264837583868397830E94530BD0
:100590002DB73EB7285F3F4F0FB6F8943EBF0FBE52
:1005A0002DBF0BC088E291E002C08CE491E068E2CC
:1005B00071E00E94640B009338018DE091E050D708
:1005C00076D617CFDA01923049F0933061F091304E
:1005D00029F5E5ECF1E022E130E024C0E7EDF1E0BF
:1005E0002EE330E01FC0813059F0813028F0823096
:1005F00059F0833099F40CC0E5E1F2E084910BC02E
:10060000E9E1F2E0849107C0E1E5F2E0849103C002
:10061000E5EBF2E08491282F30E004C0E0E0F0E068
:1006200020E030E0ED93FC93C90108953F98479A8C
:100630003E9846985098589855985D9814B815B8B3
:1006400010928801089510928401109285011092F1
:100650008601109287011092800110928101109200
:1006600082011092830110928A01109289011092E6
:100670007F0110927E0110927A0110927B011092FC
:100680007C0110927D0181E08093880110927901B4
:100690000895AF92BF92CF92DF92EF92FF920F93A5
:1006A0001F93CF93DF938C01F62EE72E73E642E083
:1006B000B42E33E0C32EDD24D394AA24AA948091CF
:1006C0008801823009F4BDC0833030F4882351F0B2
:1006D000813009F027C10CC0833031F0843009F03B
:1006E00021C10BC080E023C18F2D9E2D9C01DBC05A
:1006F0008F2D9E2D9C01E9019BC088EE93E0F8C0F0
:10070000F80160818091840190918501A09186011A
:10071000B0918701BA2FA92F982F8827262F30E074
:1007200040E050E0282B392B4A2B5B2B209384018F
:10073000309385014093860150938701E0918901B0
:10074000F0918A013196F0938A01E0938901E230B9
:10075000F10551F430937F0120937E0183E0293E1F
:10076000380710F07093880180917901813059F138
:10077000813038F0823009F437C0833009F053C03B
:1007800040C0E630F10599F0E730F10520F43297EA
:1007900009F04BC007C0EA30F10549F03D9709F078
:1007A00044C00BC02930310509F03DC03EC0205F78
:1007B0003F40404F5F40B9F538C021503040404085
:1007C000504F89F51BC010928A0110928901613641
:1007D00050F1653618F0653631F503C0B0927901F5
:1007E00024C0C092790121C080917E0190917F0147
:1007F0000296E817F907C9F46623A9F4D0927901A3
:1008000014C0349791F420937A0130937B01409384
:100810007C0150937D01211531054105510519F0E9
:10082000B092880102C0709388010F5F1F4F21971B
:10083000209709F47BC080918801813009F460CF52
:100840003ECF47983F9A55985D9A5898509A3F984E
:10085000479A4D9BFECFA4B880917A0190917B017D
:10086000A0917C01B0917D018093800190938101E2
:10087000A0938201B0938301C092880120CFF80138
:1008800081918F0185B9589A415050406040704025
:1008900040938001509381016093820170938301A2
:1008A0005898215030402115310569F04091800160
:1008B0005091810160918201709183014115510530
:1008C00061057105E1F68091800190918101A0910F
:1008D0008201B09183010097A105B10539F514B8E3
:1008E0008FEF85B984E01AC0589A5898019711F093
:1008F000369BFACF369B0DC080E0589A58988F5F90
:100900008830D9F750985D9815B81092880183E027
:100910000EC02196C95ED34018F083E6809388010B
:1009200082E005C0109288018FEF01C081E0DF9165
:10093000CF911F910F91FF90EF90DF90CF90BF90DC
:10094000AF90089586B180740895809188018330B6
:1009500029F020E030E040E050E008C02091800124
:10096000309181014091820150918301B901CA0106
:10097000089580918801833029F020E030E040E044
:1009800050E008C020917A0130917B0140917C01B8
:1009900050917D01B901CA0108959C0140919601D1
:1009A000509197014617570718F4F90190E043C09A
:1009B0006115710511F0AB01F8CF8091E8008E77D9
:1009C0008093E80040E050E0F0CF80918F018823D1
:1009D00009F447C0853009F446C08091E80083FDE2
:1009E00044C08091E80082FD36C08091E80080FF1D
:1009F00022C08091F3009091F200782F60E0292FBF
:100A000030E0262B372B07C081918093F1004150B5
:100A100050402F5F3F4F4115510519F028303105E7
:100A200098F390E02830310509F491E08091E800D6
:100A30008E778093E8004115510539F6992329F600
:100A40000AC080918F01882361F0853061F0809128
:100A5000E80083FD0AC08091E80082FFF2CF80E0C9
:100A6000089582E0089583E0089581E008959C014F
:100A700040919601509197014617570718F4F901D4
:100A800090E044C06115710511F0AB01F8CF809181
:100A9000E8008E778093E80040E050E0F0CF80914E
:100AA0008F01882309F448C0853009F447C080913C
:100AB000E80083FD45C08091E80082FD37C0809149
:100AC000E80080FF23C08091F3009091F200782F1E
:100AD00060E0292F30E0262B372B08C084918093CB
:100AE000F1003196415050402F5F3F4F4115510565
:100AF00019F02830310590F390E02830310509F4E1
:100B000091E08091E8008E778093E80041155105CF
:100B100031F6992321F60AC080918F01882361F074
:100B2000853061F08091E80083FD0AC08091E80083
:100B300082FFF2CF80E0089582E0089583E0089577
:100B400081E00895382F282F2EC0822F8F70809338
:100B5000E900231721F4762F942F50E006C07091FE
:100B6000EC009091ED005091F00091FF1BC080913E
:100B7000EB008E7F8093EB008091ED008D7F809362
:100B8000ED008091EB0081608093EB007093EC00AE
:100B90009093ED005093F0008091EE0087FD02C02D
:100BA00080E008952F5F273080F23F703093E90096
:100BB00081E008950F931F93CF93DF93062FEC01ED
:100BC00010E02AC09881992329F16B81E981FA818B
:100BD0002C81892F8F70873018F5223010F452E065
:100BE00001C056E040E028E030E003C04F5F220F34
:100BF000331F2E173F07D0F36295660F660F607C98
:100C0000991F9927991F692B4295407F452B9ADFA1
:100C1000882331F01F5F25961017A0F281E001C0F4
:100C200080E0DF91CF911F910F9108958091900105
:100C300088239CF404C080918F018823B9F08091AF
:100C4000E80082FFF8CF8091E8008B778093E8007E
:100C5000089580918F01882349F08091E80080FFFA
:100C6000F8CF8091E8008E778093E8000895409156
:100C7000E4005091E50024E68091EC0080FF24C060
:100C80008091E80080FD1EC080918F01882311F4BF
:100C900082E00895853011F483E008958091EB009F
:100CA00085FF02C081E008958091E4009091E50005
:100CB0008417950709F3222311F484E00895215045
:100CC000AC01DACF80E008958091E80082FFDCCFAC
:100CD000F9CF6BD072D0E0EEF0E08081816080834C
:100CE000A8EDB0E08C918F778C9319BCE7EDF0E024
:100CF00080818E7F80838C918F7E8C9310928E0169
:100D00000895EF92FF920F931F934FD056D008EDA6
:100D100010E0F80180818F778083808180688083F4
:100D200080818F7D808319BC10928F0110928B017E
:100D300010928D0110928C0180EEE82EF12CF701BB
:100D400080818B7F8083F80180818160808380E057
:100D500060E042E0F7DEE1EEF0E080818E7F8083AC
:100D6000E2EEF0E080818160808380818860808312
:100D7000F70180818E7F8083F8018081806180838C
:100D80001F910F91FF90EF900895E8EDF0E08081C2
:100D90008F7E8083E7EDF0E080818160808384E056
:100DA00082BF81E080938E01ACCFE8EDF0E08081DE
:100DB0008E7F80831092E20008951092DA001092E4
:100DC000E10008951F920F920FB60F9211241F9306
:100DD0002F933F934F935F936F937F938F939F9343
:100DE000AF93BF93EF93FF931091E9008091EC00D4
:100DF0001092E9008091F000877F8093F000789452
:100E0000E5D01092E9008091F00088608093F000B6
:100E10001F701093E900FF91EF91BF91AF919F91E7
:100E20008F917F916F915F914F913F912F911F9182
:100E30000F900FBE0F901F9018951F920F920FB634
:100E40000F9211242F933F934F935F936F937F9350
:100E50008F939F93AF93BF93EF93FF938091E100A4
:100E600082FF0AC08091E20082FF06C08091E1000B
:100E70008B7F8093E1001AD28091DA0080FF1CC042
:100E80008091D80080FF18C08091DA008E7F809317
:100E9000DA008091D90080FF0BC019BC82E089BDC7
:100EA00009B400FEFDCF81E080938F0125DA04C0F4
:100EB00019BC10928F0124DA8091E10080FF18C0E4
:100EC0008091E20080FF14C08091E2008E7F8093C9
:100ED000E2008091E20080618093E2008091D8007E
:100EE00080628093D80019BC85E080938F01DED1A9
:100EF0008091E10084FF2EC08091E20084FF2AC02F
:100F000019BC82E089BD09B400FEFDCF8091D800F4
:100F10008F7D8093D8008091E1008F7E8093E100E7
:100F20008091E2008F7E8093E2008091E2008160F8
:100F30008093E20080918B01882311F084E007C048
:100F40008091E30087FD02C081E001C083E08093CF
:100F50008F01ACD18091E10083FF27C08091E20036
:100F600083FF23C08091E100877F8093E10082E0CE
:100F700080938F0110928B018091E1008E7F80938E
:100F8000E1008091E2008E7F8093E2008091E20098
:100F900080618093E20080E060E042E0D3DD8091F8
:100FA000F00088608093F00081D1FF91EF91BF91B4
:100FB000AF919F918F917F916F915F914F913F91F1
:100FC0002F910F900FBE0F901F9018951F93DF93D6
:100FD000CF93CDB7DEB7AC970FB6F894DEBF0FBE98
:100FE000CDBFE0E9F1E08091F100819321E0E839A3
:100FF000F207C9F7B4D98091E80083FF3FC180911F
:10100000900130919101353009F48DC0363040F4B3
:101010003130E1F1313070F0333009F02FC136C09A
:10102000383009F4FDC0393009F40CC1363009F00C
:1010300025C19CC0803821F0823809F01FC108C04A
:1010400090918C0180918D018823B1F0926014C041
:10105000809194018F70873008F010C18093E9006F
:101060008091EB0090E025E0969587952A95E1F731
:10107000982F91701092E9008091E800877F80930B
:10108000E8009093F1001092F100D5C0882319F088
:10109000823009F0F3C090E08F719070009721F0DA
:1010A000029709F0EBC00CC080919201813009F0E9
:1010B000E5C010928D01333081F580938D012DC0F4
:1010C00080919201882349F5209194012F70822FFD
:1010D0008150863008F0D2C02093E9008091EB0067
:1010E00080FF1BC0333021F48091EB00806213C07D
:1010F0008091EB0080618093EB0081E090E002C082
:10110000880F991F2A95E2F78093EA001092EA006F
:101110008091EB0088608093EB001092E900809151
:10112000E800877F8BC0882309F0A8C01091920146
:101130001F778091E3008078812B8093E30080917A
:10114000E800877F8093E80071DD8091E80080FFF0
:10115000FCCF8091E30080688093E300112311F4B9
:1011600082E001C083E080938F0188C08058823084
:1011700008F084C0809192019091930123E08C3D0E
:10118000920709F033C083E08C838AE28B837FB7B8
:10119000F894DE0115966EE040E050E011E2E62F93
:1011A000F0E010935700849140FF03C082958F7048
:1011B0006F5F8F70282F30E08A3018F0C901C79612
:1011C00002C0C901C0968D939D934F5F5F4F44311C
:1011D000510529F77FBF8091E800877F8093E80061
:1011E000CE0103966AE270E0D8DB14C060919401EE
:1011F00070919501AE014F5F5F4FE4D9BC0100973C
:1012000009F43CC08091E800877F8093E8008981E1
:101210009A812DDC8091E8008B778093E8002EC0C6
:10122000803861F58091E800877F8093E8008091A5
:101230008B018093F1008091E8008E778093E80025
:10124000F5DC1CC08823D1F4909192019230B0F467
:101250008091E800877F8093E80090938B01E6DC23
:1012600080918B01882331F48091E30087FD02C0D7
:1012700081E001C084E080938F0175D88091E800FF
:1012800083FF0AC08091E800877F8093E800809107
:10129000EB0080628093EB00AC960FB6F894DEBF53
:1012A0000FBECDBFCF91DF911F91089508951F9379
:1012B00080918F01882371F01091E9008091EC00FA
:1012C0001092E9008091E80083FF01C07FDE1F706B
:1012D0001093E9001F910895FC0180918F018430E3
:1012E00061F584899589A689B7890097A105B1051B
:1012F00021F186818F708093E9008091E80082FF60
:101300001CC04091F3002091F200942F80E030E067
:10131000822B932B892B31F48091E8008B7780937B
:10132000E8000BC08091F3009091F200382F20E08C
:10133000492F50E0422B532B02C040E050E0CA013D
:101340000895FC0180918F01843099F584899589F5
:10135000A689B7890097A105B10559F186818F70DB
:101360008093E9008091E80082FF23C04091F30060
:101370002091F200942F80E030E0822B932B892B78
:1013800019F46FEF7FEF04C08091F100682F70E0D7
:101390004091F3002091F200942F80E030E0822B06
:1013A000932B892B41F48091E8008B778093E800A0
:1013B00002C06FEF7FEFCB010895FB012EE0DB0150
:1013C0001D922A95E9F723E023832EE63AE0318740
:1013D000208720EF39E03387228795878487089517
:1013E000FC0184859585ADDF9C0197FF02C02EEF3F
:1013F0003FEFC90108950895FC0180918F01843069
:1014000051F584899589A689B7890097A105B10509
:1014100011F181818F708093E9004091F300209158
:10142000F200942F80E030E0822B932B892BA9F0DF
:101430009091E8008091E8008E778093E80095FD18
:101440000CC015DC982F882349F48091E8008E7732
:101450008093E80003C092E001C090E0892F0895D6
:10146000FC0180918F01843091F484899589A6894B
:10147000B7890097A105B10551F081818F708093E4
:10148000E9008091E80080FF02C0CF01B5CF089548
:101490001F93FC01162F80918F018430E1F4848921
:1014A0009589A689B7890097A105B105A1F0818129
:1014B0008F708093E9008091E80085FD08C08091DD
:1014C000E8008E778093E800D2DB882329F410931C
:1014D000F10080E001C082E01F910895282FFB01F8
:1014E00084859585622FD4DF882319F420E030E0CD
:1014F00002C02FEF3FEFC9010895CF93DF93EC01B6
:101500004096FC018BE0DF011D928A95E9F782E0AD
:101510008C83898783E08E87CE01019661E04ADB68
:10152000882371F0CE01069661E044DB882341F008
:10153000CE010B9661E03EDB882319F081E001C00B
:1015400080E0DF91CF910895CF93DF93EC018091FC
:10155000E80083FFA5C0888190E02091940130913C
:1015600095012817390709F09BC0809191018132BC
:1015700069F0823220F4803209F092C03CC082329D
:1015800009F46CC0833209F08BC07CC0809190015B
:10159000813A09F085C08091E800877F8093E80058
:1015A0008091E80080FFFCCF8C899D89AE89BF893E
:1015B0008093F100292F3A2F4B2F55272093F100CC
:1015C0009D01442755272093F1008B2F9927AA27A7
:1015D000BB278093F100888D8093F100898D8093E3
:1015E000F1008A8D8093F1008091E8008E778093DE
:1015F000E8001CDB55C080919001813209F050C099
:101600008091E800877F8093E80005C080918F017A
:10161000882309F445C08091E80082FFF7CF8091CC
:10162000F1009091F1002091F1003091F1008C8B4C
:101630009D8B2E8B3F8B8091F100888F8091F100E4
:10164000898F8091F1008A8F8091E8008B77809359
:10165000E800ECDACE010E94840122C08091900162
:101660008132F1F48091E800877F8093E800DEDA30
:101670008091920190919301998B888BCE010E9469
:1016800083010EC080919001813251F48091E80075
:10169000877F8093E800CADACE0160919201ABDEC9
:1016A000DF91CF910895A0E0B0E0E8E5FBE0B4C29F
:1016B0009E01275F3F4F8D819E816F817885A901B3
:1016C0002DD02096E2E0C4C2EF92FF920F931F93B9
:1016D000CF93DF937C018B01DB0113968C9181FD0D
:1016E00003C0CFEFDFEF15C0C0E0D0E00EC0D801DF
:1016F0001896ED91FC911997B8010995892B11F075
:10170000CFEFDFEF0894E11CF11CF70184918823EF
:1017100071F7CE01CDB7DEB7E6E096C2ABE0B0E040
:10172000E3E9FBE069C23C012B015A01FC0117828D
:101730001682838181FD03C06FEF7FEFB9C19AE00C
:10174000892E1E010894211C311CF3012381F20112
:1017500023FD859123FF81912F01882309F4A5C1E1
:10176000853239F423FD859123FF81912F01853244
:1017700021F490E0B301B6D1E8CF982FFF24EE24F6
:101780009924FFE1FF15D0F09B3269F09C3228F4D8
:10179000903259F0933291F40EC09D3249F090335B
:1017A00069F441E024C052E0F52A84E0F82A28C018
:1017B00098E0F92A25C0E0E1FE2A22C0F7FC29C002
:1017C000892F80538A3070F4F6FE05C0989C902CC7
:1017D0001124980E15C0E89CE02C1124E80EF0E2CC
:1017E000FF2A0EC09E3229F4F6FC5FC140E4F42AC1
:1017F00007C09C3619F450E8F52A02C0983649F41F
:10180000F20123FD959123FF91912F01992309F076
:10181000B8CF892F8554833018F08052833038F444
:1018200044E050E0A40EB51E5FE359830FC0933629
:1018300031F0933779F0933509F052C01FC0F501AC
:101840008081898342E050E0A40EB51E610101E071
:1018500010E011C0F501C080D180F6FC03C06FEF2D
:101860007FEF02C0692D70E042E050E0A40EB51E8B
:10187000C6012DD18C015FE7F52213C0F501C080B0
:10188000D180F6FC03C06FEF7FEF02C0692D70E0DE
:1018900042E050E0A40EB51EC6010ED18C0150E806
:1018A000F52AF3FE06C018C080E290E0B3011AD119
:1018B000EA948E2D90E008171907B0F30DC0F601D9
:1018C000F7FC8591F7FE81916F0190E0B3010AD199
:1018D000E110EA94015010400115110581F7E2C0B2
:1018E000943611F0993661F5F7FE08C0F5012081B4
:1018F00031814281538184E090E00AC0F50180810A
:1019000091819C01442737FD4095542F82E090E05F
:10191000A80EB91E9FE6F92257FF09C050954095C1
:10192000309521953F4F4F4F5F4FE0E8FE2ACA01A7
:10193000B901A1012AE030E001D1D82ED2183FC070
:10194000953729F41F2D1F7E2AE030E01DC01F2D82
:10195000197F9F3661F0903720F4983509F0A5C0C3
:101960000FC0903739F0983709F09FC004C028E0C5
:1019700030E00AC0106114FD146020E130E004C0C2
:1019800014FD166020E132E017FF08C0F501608108
:1019900071818281938144E050E008C0F50180812B
:1019A0009181BC0180E090E042E050E0A40EB51EC1
:1019B000A101C4D0D82ED2188FE7F82EF122F6FE5E
:1019C0000BC05EEFF522D91438F4F4FE07C0F2FC28
:1019D00005C08FEEF82202C01D2D01C0192DF4FEA6
:1019E0000DC0FE01ED0DF11D8081803319F499EEDB
:1019F000F92208C01F5FF2FE05C003C08F2D867854
:101A000009F01F5F0F2DF3FC13C0F0FE0EC01E1572
:101A100010F09D2C0AC09D2C9E0C911A1E2D05C005
:101A200080E290E0B3015ED01F5F1E15C8F304C0D2
:101A30001E1510F4E11A01C0EE2404FF0EC080E36D
:101A400090E0B3014FD002FF1BC001FD03C088E747
:101A500090E00EC088E590E00BC0802F867881F082
:101A600001FF02C08BE201C080E2F7FC8DE290E052
:101A7000B30138D005C080E390E0B30133D09A942D
:101A8000D914C8F3DA94F101ED0DF11D808190E0D5
:101A9000B30128D0DD20B1F705C080E290E0B301AA
:101AA00021D0EA94EE20C9F750CEF3016681778108
:101AB000CB012B96E2E1BCC0FC0105906150704067
:101AC0000110D8F7809590958E0F9F1F0895FC0107
:101AD0006150704001900110D8F7809590958E0F5D
:101AE0009F1F08950F931F93CF93DF938C01EB01FA
:101AF0008B8181FF1BC082FF0DC02E813F818C81B5
:101B00009D812817390764F4E881F9810193F983ED
:101B1000E88306C0E885F985802F0995892B31F483
:101B20008E819F8101969F838E8302C00FEF1FEFEE
:101B3000C801DF91CF911F910F910895FA01AA2753
:101B4000283051F1203181F1E8946F936E7F6E5F00
:101B50007F4F8F4F9F4FAF4FB1E03ED0B4E03CD0AE
:101B6000670F781F891F9A1FA11D680F791F8A1F91
:101B7000911DA11D6A0F711D811D911DA11D20D0F8
:101B800009F468943F912AE0269F11243019305DB2
:101B90003193DEF6CF010895462F4770405D4193A3
:101BA000B3E00FD0C9F7F6CF462F4F70405D4A33F0
:101BB00018F0495D31FD4052419302D0A9F7EACFB8
:101BC000B4E0A6959795879577956795BA95C9F7E7
:101BD00000976105710508959B01AC010A2E0694DA
:101BE0005795479537952795BA95C9F7620F731F93
:101BF000841F951FA01D08952F923F924F925F92D0
:101C00006F927F928F929F92AF92BF92CF92DF920C
:101C1000EF92FF920F931F93CF93DF93CDB7DEB771
:101C2000CA1BDB0B0FB6F894DEBF0FBECDBF099405
:101C30002A88398848885F846E847D848C849B845C
:101C4000AA84B984C884DF80EE80FD800C811B816A
:101C5000AA81B981CE0FD11D0FB6F894DEBF0FBE99
:0A1C6000CDBFED010895F894FFCF09
:101C6A0025376C75202F0025376C750D00008340D1
:101C7A000000010440000001820800000100000089
:081C8A00000000000000000052
:00000001FF
