:100000009DC10000B7C10000B5C10000B3C1000030
:10001000B1C10000AFC10000ADC10000ABC1000024
:10002000A9C10000A7C10000D2C6000095C600000B
:10003000A1C100009FC100009DC100009BC1000044
:1000400099C1000097C1000095C1000093C1000054
:1000500091C100008FC100008DC100008BC1000064
:1000600089C1000087C1000085C1000083C1000074
:1000700081C100007FC100007DC100007BC1000084
:1000800079C1000077C1000075C1000073C1000094
:1000900071C100006FC100006DC100006BC10000A4
:1000A00069C1000067C1000065C100000D0A0A0AAD
:1000B0002A205370617274616E20436F6E666967A7
:1000C000757261746F72202A0A0D286329203230FC
:1000D00032312C2052656EE92054726170700A0032
:1000E0000D0A3E00203C2D3F000D0A465047412D91
:1000F0004B6F6E66696775726174696F6E206572A9
:10010000666F726465726C6963682C2062697474CE
:10011000652042697473747265616D2D4461746504
:100120006920282A2E626974292073656E64656EC1
:100130002E000D0A42697473747265616D203D2052
:10014000256C75204279746573000D0A465047414D
:10015000206572666F6C677265696368206B6F6E8D
:100160006669677572696572742E000D0A46656866
:100170006C65722062656920646572204650474153
:100180002D4B6F6E66696775726174696F6E2100C1
:100190000D0A2F50524F47206E6963687420616EBC
:1001A00067657363686C6F7373656E21000D0A4B2E
:1001B0006F6D6D616E646F733A0D0A20433A20547F
:1001C000726967676572204650474120746F2063EB
:1001D0006F6E6669677572652066726F6D206669FD
:1001E0006C650D0A203F3A205468697320276D61C1
:1001F0006E70616765270A000D0A4E6F74206120DA
:1002000076616C69642062697473747265616D21D2
:100210002057726F6E672066696C65206F72206E62
:100220006F7420696E2042494E41525920747261A8
:100230006E73666572206D6F64652E0D0A596F7559
:100240002063616E20736166656C792061626F72F4
:100250007420746865207472616E736665722E0D09
:100260000A5072657373203C52455455524E3E00FD
:100270001201100102000008412336800100010232
:10028000030109023E00020100C0FA090400000156
:1002900002020100052400100104240206052406C0
:1002A0000001070582030800FF09040100020A009B
:1002B0000000070504024000050705830240000511
:1002C000040309041603520065006E00E9002000D3
:1002D000540072006100700070000000560341007D
:1002E00072006400750069006E006F0020004C0011
:1002F00065006F006E006100720064006F002000F6
:1003000061007300200053007000610072007400EF
:1003100061006E002D0049004900200043006F007D
:100320006E00660069006700200054006F006F00D7
:100330006C000000060330003100000011241FBED5
:10034000CFEFDAE0DEBFCDBF11E0A0E0B1E0E0E149
:10035000FCE102C005900D92AC31B107D9F711E074
:10036000ACE1B1E001C01D92A738B107E1F72FD091
:100370000C94060E45CE089510922C010895089510
:10038000FC0184899589A689B789805B9440A04047
:10039000B040A1F468D4F89487E797E790930108F8
:1003A000809300082CE088E190E00FB6F894A895BF
:1003B000809360000FBE20936000FFCF089580E01F
:1003C00091E00C946E0A80E091E00C94470A6F92E1
:1003D0007F928F929F92AF92BF92CF92DF92EF92D5
:1003E000FF920F931F93CF93DF9380E090E020E87C
:1003F0000FB6F89420936100809361000FBE71D115
:1004000010922C0180E091E06CE171E0A0D787D4DC
:10041000789402E06CE1C62E61E0D62E5BE0A52E5A
:100420004EE0642E3CE0932E22E3E22E21E0F22EF9
:100430009DE0892E83E6782EBB24B39480E091E082
:1004400015D790932B0180932A01892B91F010E00E
:1004500007C080E091E03FD7C35DDE4F88831F5F18
:10046000C12FD0E080912A0190912B01C817D907A4
:1004700080F380912C018A3009F46BC08B3058F4E2
:100480008130F1F0813008F45AC0823029F1833094
:1004900009F0EEC02AC08D3009F4C2C08E3038F4A5
:1004A0008B3009F461C08C3009F0E2C007C08E3097
:1004B00009F4C5C0833609F0DBC0CEC010E0A5C08A
:1004C0008CEA90E06CE171E00E94370B8DEA91E0DC
:1004D0006CE171E00E94370B80EE90E06CE171E01E
:1004E0000E94370B83E080932C010AD2882311F4F9
:1004F000A0922C0180912A0190912B01019709F083
:10050000B7C080E091E060912D018CD780912D01E2
:100510008F3331F0833439F48AE080932C0109C0A1
:10052000B0922C0106C084EE90E06CE171E00E9474
:10053000370B80912C01833009F09AC097C08091CD
:100540002A0190912B01892B09F492C0B0922C01C1
:100550008FC0D2D0882319F0A0922C0189C00093BB
:100560002C0180E991E009C0C8D1882309F480C03A
:10057000CFD090922C0189EE90E06CE171E00E9466
:10058000370B76C0FE01E35DFE4F8081D8D08C3002
:1005900019F08D30C9F52EC0B6D12DB73EB7285011
:1005A00030400FB6F8943EBF0FBE2DBFEDB7FEB77B
:1005B0003196ADB7BEB71296DC92CE921197F38208
:1005C000E28264837583868397830E941D0B2DB717
:1005D0003EB7285F3F4F0FB6F8943EBF0FBE2DBF0A
:1005E00060912A01611BCE01825D9E4F2CD18092C9
:1005F0002C0108C088EF91E06CE171E00E94370B9C
:1006000070922C0110912A011F5FC12FD0E08091C0
:100610002A0190912B01C817D90708F4B3CF28C03D
:1006200060912A0170912B016115710509F18DE22C
:1006300091E009D18823E1F460922C0119C060D1C6
:10064000882319F08AE491E002C08BE691E06CE126
:1006500071E00E94370B0AC080912A0190912B0112
:10066000019731F480912D018D3011F400932C010C
:1006700080E091E0BFD6E5D5E1CEDA01923049F0D5
:10068000933061F0913029F5E0E7F2E022E130E0CB
:1006900024C0E2E8F2E02EE330E01FC0813059F0E0
:1006A000813028F0823059F0833099F40CC0E0ECAE
:1006B000F2E084910BC0E4ECF2E0849107C0ECED31
:1006C000F2E0849103C0E4E3F3E08491282F30E06A
:1006D00004C0E0E0F0E020E030E0ED93FC93C901DD
:1006E00008955098589A14B815B83F984798559857
:1006F0005D983E984698089547983F9A82E0982FD3
:100700009A95F1F73F988A95F1F786B1807408952C
:10071000109273011092740110927501109276017B
:100720001092790110927801109272011092710169
:10073000109277015898509A8FEF84B90895E82F56
:10074000482F50E060E070E0809173019091740157
:10075000A0917501B0917601BA2FA92F982F882703
:10076000482B592B6A2B7B2B4093730150937401B8
:100770006093750170937601209178013091790131
:100780002F5F3F4F3093790120937801223031055C
:1007900021F450937201409371018091770181306F
:1007A00021F1813030F0823079F1863009F045C096
:1007B00037C02230310549F4809171019091720166
:1007C000099719F08DE080937701809171019091E4
:1007D000720104962817390799F54130510569F5DA
:1007E000109279011092780119C01092790110923B
:1007F0007801E13610F1E53618F0E536F1F402C083
:1008000082E01CC086E01AC0809171019091720153
:10081000029628173907A1F4EE2379F481E00EC07F
:100820002430310569F440936D0150936E0160935B
:100830006F01709370018CE001C08DE080937701AF
:10084000809177010895782FE92F809177018C307E
:1008500009F04DC08091730190917401A0917501D0
:10086000B0917601262F30E040E050E082179307E8
:10087000A407B50750F4682F109273011092740109
:1008800010927501109276010CC0821B930BA40B81
:10089000B50B8093730190937401A0937501B0938D
:1008A0007601662369F0872F9E2F9C01F90190E065
:1008B00005C0819185B9589A58989F5F9617C8F3DB
:1008C0008091730190917401A0917501B0917601AE
:1008D0000097A105B10571F480E0589A58988F5F90
:1008E0008830D9F75098589A1092770103C08DE05C
:1008F0008093770180917701089589B1807208957E
:1009000086B180740895809177018C3029F020E0C1
:1009100030E040E050E008C020916D0130916E0160
:1009200040916F0150917001B901CA0108959C0175
:1009300040918501509186014617570718F4F90137
:1009400090E043C06115710511F0AB01F8CF8091C3
:10095000E8008E778093E80040E050E0F0CF80918F
:100960007E01882309F447C0853009F446C0809190
:10097000E80083FD44C08091E80082FD36C080918C
:10098000E80080FF22C08091F3009091F200782F60
:1009900060E0292F30E0262B372B07C08191809310
:1009A000F100415050402F5F3F4F4115510519F064
:1009B0002830310598F390E02830310509F491E0B2
:1009C0008091E8008E778093E8004115510539F653
:1009D000992329F60AC080917E01882361F0853031
:1009E00061F08091E80083FD0AC08091E80082FFF9
:1009F000F2CF80E0089582E0089583E0089581E0D9
:100A000008959C0140918501509186014617570732
:100A100018F4F90190E044C06115710511F0AB01C3
:100A2000F8CF8091E8008E778093E80040E050E0B6
:100A3000F0CF80917E01882309F448C0853009F405
:100A400047C08091E80083FD45C08091E80082FDA9
:100A500037C08091E80080FF23C08091F30090911F
:100A6000F200782F60E0292F30E0262B372B08C0CA
:100A700084918093F1003196415050402F5F3F4F59
:100A80004115510519F02830310590F390E02830D8
:100A9000310509F491E08091E8008E778093E800B9
:100AA0004115510531F6992321F60AC080917E0146
:100AB000882361F0853061F08091E80083FD0AC0F1
:100AC0008091E80082FFF2CF80E0089582E00895EF
:100AD00083E0089581E00895382F282F2EC0822FBB
:100AE0008F708093E900231721F4762F942F50E024
:100AF00006C07091EC009091ED005091F00091FFD4
:100B00001BC08091EB008E7F8093EB008091ED0005
:100B10008D7F8093ED008091EB0081608093EB00EE
:100B20007093EC009093ED005093F0008091EE00F4
:100B300087FD02C080E008952F5F273080F23F706C
:100B40003093E90081E008950F931F93CF93DF93D3
:100B5000062FEC0110E02AC09881992329F16B81BE
:100B6000E981FA812C81892F8F70873018F5223026
:100B700010F452E001C056E040E028E030E003C04D
:100B80004F5F220F331F2E173F07D0F36295660F7A
:100B9000660F607C991F9927991F692B4295407FAA
:100BA000452B9ADF882331F01F5F25961017A0F29E
:100BB00081E001C080E0DF91CF911F910F910895F6
:100BC00080917F0188239CF404C080917E0188235A
:100BD000B9F08091E80082FFF8CF8091E8008B7730
:100BE0008093E800089580917E01882349F08091E8
:100BF000E80080FFF8CF8091E8008E778093E800CE
:100C000008954091E4005091E50024E68091EC00C5
:100C100080FF24C08091E80080FD1EC080917E018D
:100C2000882311F482E00895853011F483E008955B
:100C30008091EB0085FF02C081E008958091E4007F
:100C40009091E5008417950709F3222311F484E0BD
:100C500008952150AC01DACF80E008958091E8003A
:100C600082FFDCCFF9CF6BD072D0E0EEF0E0808174
:100C700081608083A8EDB0E08C918F778C9319BC54
:100C8000E7EDF0E080818E7F80838C918F7E8C9366
:100C900010927D010895EF92FF920F931F934FD012
:100CA00056D008ED10E0F80180818F778083808135
:100CB0008068808380818F7D808319BC10927E0143
:100CC00010927A0110927C0110927B0180EEE82E46
:100CD000F12CF70180818B7F8083F8018081816016
:100CE000808380E060E042E0F7DEE1EEF0E08081CA
:100CF0008E7F8083E2EEF0E080818160808380815E
:100D000088608083F70180818E7F8083F8018081F5
:100D1000806180831F910F91FF90EF900895E8ED1F
:100D2000F0E080818F7E8083E7EDF0E0808181605C
:100D3000808384E082BF81E080937D01ACCFE8EDC9
:100D4000F0E080818E7F80831092E20008951092FF
:100D5000DA001092E10008951F920F920FB60F92E1
:100D600011241F932F933F934F935F936F937F9320
:100D70008F939F93AF93BF93EF93FF931091E900ED
:100D80008091EC001092E9008091F000877F8093C1
:100D9000F0007894E5D01092E9008091F00088602E
:100DA0008093F0001F701093E900FF91EF91BF91C5
:100DB000AF919F918F917F916F915F914F913F91F3
:100DC0002F911F910F900FBE0F901F9018951F929B
:100DD0000F920FB60F9211242F933F934F935F936F
:100DE0006F937F938F939F93AF93BF93EF93FF93F3
:100DF0008091E10082FF0AC08091E20082FF06C07C
:100E00008091E1008B7F8093E1001AD28091DA001B
:100E100080FF1CC08091D80080FF18C08091DA004C
:100E20008E7F8093DA008091D90080FF0BC019BCBF
:100E300082E089BD09B400FEFDCF81E080937E0190
:100E40009ADA04C019BC10927E0196DA8091E10012
:100E500080FF18C08091E20080FF14C08091E20002
:100E60008E7F8093E2008091E20080618093E200B7
:100E70008091D80080628093D80019BC85E080936F
:100E80007E01DED18091E10084FF2EC08091E200DE
:100E900084FF2AC019BC82E089BD09B400FEFDCFE1
:100EA0008091D8008F7D8093D8008091E1008F7E63
:100EB0008093E1008091E2008F7E8093E200809138
:100EC000E20081608093E20080917A01882311F032
:100ED00084E007C08091E30087FD02C081E001C08B
:100EE00083E080937E01ACD18091E10083FF27C035
:100EF0008091E20083FF23C08091E100877F80938F
:100F0000E10082E080937E0110927A018091E100FD
:100F10008E7F8093E1008091E2008E7F8093E200DB
:100F20008091E20080618093E20080E060E042E036
:100F3000D3DD8091F00088608093F00081D1FF9133
:100F4000EF91BF91AF919F918F917F916F915F9141
:100F50004F913F912F910F900FBE0F901F901895BA
:100F60001F93DF93CF93CDB7DEB7AC970FB6F8944E
:100F7000DEBF0FBECDBFEFE7F1E08091F1008193BE
:100F800021E0E738F207C9F71ADA8091E80083FF19
:100F90003FC180917F0130918001353009F48DC0CF
:100FA000363040F43130E1F1313070F0333009F057
:100FB0002FC136C0383009F4FDC0393009F40CC1F6
:100FC000363009F025C19CC0803821F0823809F004
:100FD0001FC108C090917B0180917C018823B1F0F2
:100FE000926014C0809183018F70873008F010C127
:100FF0008093E9008091EB0090E025E0969587953D
:101000002A95E1F7982F91701092E9008091E800FD
:10101000877F8093E8009093F1001092F100D5C093
:10102000882319F0823009F0F3C090E08F7190703E
:10103000009721F0029709F0EBC00CC0809181016C
:10104000813009F0E5C010927C01333081F5809346
:101050007C012DC080918101882349F52091830175
:101060002F70822F8150863008F0D2C02093E90083
:101070008091EB0080FF1BC0333021F48091EB00A6
:10108000806213C08091EB0080618093EB0081E06F
:1010900090E002C0880F991F2A95E2F78093EA003A
:1010A0001092EA008091EB0088608093EB00109230
:1010B000E9008091E800877F8BC0882309F0A8C0F1
:1010C000109181011F778091E3008078812B8093BC
:1010D000E3008091E800877F8093E80071DD8091D4
:1010E000E80080FFFCCF8091E30080688093E300FC
:1010F000112311F482E001C083E080937E0188C057
:101100008058823008F084C08091810190918201E2
:1011100023E08C3D920709F033C083E08C838AE2A0
:101120008B837FB7F894DE0115966EE040E050E0C7
:1011300011E2E62FF0E010935700849140FF03C0C6
:1011400082958F706F5F8F70282F30E08A3018F093
:10115000C901C79602C0C901C0968D939D934F5F88
:101160005F4F4431510529F77FBF8091E800877FA9
:101170008093E800CE0103966AE270E0D8DB14C0E9
:101180006091830170918401AE014F5F5F4F75DA0A
:10119000BC01009709F43CC08091E800877F8093F0
:1011A000E80089819A812DDC8091E8008B7780931B
:1011B000E8002EC0803861F58091E800877F809339
:1011C000E80080917A018093F1008091E8008E77A9
:1011D0008093E800F5DC1CC08823D1F49091810154
:1011E0009230B0F48091E800877F8093E80090937C
:1011F0007A01E6DC80917A01882331F48091E30062
:1012000087FD02C081E001C084E080937E01DBD8CD
:101210008091E80083FF0AC08091E800877F809377
:10122000E8008091EB0080628093EB00AC960FB6F3
:10123000F894DEBF0FBECDBFCF91DF911F9108950F
:1012400008951F9380917E01882371F01091E90029
:101250008091EC001092E9008091E80083FF01C0CA
:101260007FDE1F701093E9001F910895FC018091AB
:101270007E01843061F584899589A689B7890097B4
:10128000A105B10521F186818F708093E9008091DD
:10129000E80082FF1CC04091F3002091F200942FDF
:1012A00080E030E0822B932B892B31F48091E80091
:1012B0008B778093E8000BC08091F3009091F2004F
:1012C000382F20E0492F50E0422B532B02C040E042
:1012D00050E0CA010895FC0180917E01843099F5A7
:1012E00084899589A689B7890097A105B10559F127
:1012F00086818F708093E9008091E80082FF23C08F
:101300004091F3002091F200942F80E030E0822B96
:10131000932B892B19F46FEF7FEF04C08091F100BC
:10132000682F70E04091F3002091F200942F80E04C
:1013300030E0822B932B892B41F48091E8008B774E
:101340008093E80002C06FEF7FEFCB010895FB01AF
:101350002EE0DB011D922A95E9F723E0238328E3A1
:101360003AE0318720872AEB39E033872287958757
:1013700084870895FC0184859585ADDF9C0197FFE6
:1013800002C02EEF3FEFC90108950895FC0180913E
:101390007E01843051F584899589A689B7890097A3
:1013A000A105B10511F181818F708093E900409111
:1013B000F3002091F200942F80E030E0822B932BF9
:1013C000892BA9F09091E8008091E8008E778093B6
:1013D000E80095FD0CC015DC982F882349F4809116
:1013E000E8008E778093E80003C092E001C090E0AF
:1013F000892F0895FC0180917E01843091F48489C5
:101400009589A689B7890097A105B10551F0818119
:101410008F708093E9008091E80080FF02C0CF01C7
:10142000B5CF08951F93FC01162F80917E01843063
:10143000E1F484899589A689B7890097A105B1054A
:10144000A1F081818F708093E9008091E80085FD93
:1014500008C08091E8008E778093E800D2DB882373
:1014600029F41093F10080E001C082E01F910895FB
:10147000282FFB0184859585622FD4DF882319F4FA
:1014800020E030E002C02FEF3FEFC9010895CF9375
:10149000DF93EC014096FC018BE0DF011D928A9501
:1014A000E9F782E08C83898783E08E87CE010196FD
:1014B00061E04ADB882371F0CE01069661E044DBEF
:1014C000882341F0CE010B9661E03EDB882319F0C2
:1014D00081E001C080E0DF91CF910895CF93DF9349
:1014E000EC018091E80083FFA5C0888190E0209105
:1014F0008301309184012817390709F09BC080913E
:101500008001813269F0823220F4803209F092C089
:101510003CC0823209F46CC0833209F08BC07CC0BD
:1015200080917F01813A09F085C08091E800877F32
:101530008093E8008091E80080FFFCCF8C899D8932
:10154000AE89BF898093F100292F3A2F4B2F552761
:101550002093F1009D01442755272093F1008B2F04
:101560009927AA27BB278093F100888D8093F100EB
:10157000898D8093F1008A8D8093F1008091E8003D
:101580008E778093E8001CDB55C080917F0181320B
:1015900009F050C08091E800877F8093E80005C083
:1015A00080917E01882309F445C08091E80082FF84
:1015B000F7CF8091F1009091F1002091F1003091EE
:1015C000F1008C8B9D8B2E8B3F8B8091F100888F4F
:1015D0008091F100898F8091F1008A8F8091E800DD
:1015E0008B778093E800ECDACE010E94C00122C024
:1015F00080917F018132F1F48091E800877F8093B0
:10160000E800DEDA8091810190918201998B888BCC
:10161000CE010E94BF010EC080917F01813251F442
:101620008091E800877F8093E800CADACE0160915C
:101630008101ABDEDF91CF910895A0E0B0E0E2E25E
:10164000FBE0BBC20F8118859E01255F3F4FF8016B
:10165000838188608383C80169857A85A90131D037
:10166000F8012381277F23832096E4E0C2C2EF9212
:10167000FF920F931F93CF93DF937C018B01DB01CC
:1016800013968C9181FD03C0CFEFDFEF15C0C0E052
:10169000D0E00EC0D8011896ED91FC911997B801D1
:1016A0000995892B11F0CFEFDFEF0894E11CF11CB5
:1016B000F7018491882371F7CE01CDB7DEB7E6E05C
:1016C00096C2ABE0B0E0E6E6FBE069C23C012B016C
:1016D0005A01FC0117821682838181FD03C06FEFDE
:1016E0007FEFB9C19AE0892E1E010894211C311C9C
:1016F000F3012381F20123FD859123FF81912F01C5
:10170000882309F4A5C1853239F423FD859123FF8F
:1017100081912F01853221F490E0B301B6D1E8CF59
:10172000982FFF24EE249924FFE1FF15D0F09B327F
:1017300069F09C3228F4903259F0933291F40EC043
:101740009D3249F0903369F441E024C052E0F52A1B
:1017500084E0F82A28C098E0F92A25C0E0E1FE2AB2
:1017600022C0F7FC29C0892F80538A3070F4F6FE1E
:1017700005C0989C902C1124980E15C0E89CE02C74
:101780001124E80EF0E2FF2A0EC09E3229F4F6FC86
:101790005FC140E4F42A07C09C3619F450E8F52AEA
:1017A00002C0983649F4F20123FD959123FF9191EF
:1017B0002F01992309F0B8CF892F8554833018F071
:1017C0008052833038F444E050E0A40EB51E5FE34D
:1017D00059830FC0933631F0933779F0933509F080
:1017E00052C01FC0F5018081898342E050E0A40E01
:1017F000B51E610101E010E011C0F501C080D1808B
:10180000F6FC03C06FEF7FEF02C0692D70E042E08D
:1018100050E0A40EB51EC6012DD18C015FE7F52264
:1018200013C0F501C080D180F6FC03C06FEF7FEFDD
:1018300002C0692D70E042E050E0A40EB51EC60162
:101840000ED18C0150E8F52AF3FE06C018C080E2E4
:1018500090E0B3011AD1EA948E2D90E00817190791
:10186000B0F30DC0F601F7FC8591F7FE81916F0191
:1018700090E0B3010AD1E110EA9401501040011543
:10188000110581F7E2C0943611F0993661F5F7FE43
:1018900008C0F501208131814281538184E090E0CC
:1018A0000AC0F501808191819C01442737FD409554
:1018B000542F82E090E0A80EB91E9FE6F92257FF50
:1018C00009C050954095309521953F4F4F4F5F4F40
:1018D000E0E8FE2ACA01B901A1012AE030E001D105
:1018E000D82ED2183FC0953729F41F2D1F7E2AE02D
:1018F00030E01DC01F2D197F9F3661F0903720F416
:10190000983509F0A5C00FC0903739F0983709F025
:101910009FC004C028E030E00AC0106114FD1460CC
:1019200020E130E004C014FD166020E132E017FF32
:1019300008C0F501608171818281938144E050E0AB
:1019400008C0F50180819181BC0180E090E042E017
:1019500050E0A40EB51EA101C4D0D82ED2188FE736
:10196000F82EF122F6FE0BC05EEFF522D91438F402
:10197000F4FE07C0F2FC05C08FEEF82202C01D2D58
:1019800001C0192DF4FE0DC0FE01ED0DF11D808189
:10199000803319F499EEF92208C01F5FF2FE05C0EA
:1019A00003C08F2D867809F01F5F0F2DF3FC13C045
:1019B000F0FE0EC01E1510F09D2C0AC09D2C9E0C32
:1019C000911A1E2D05C080E290E0B3015ED01F5F2A
:1019D0001E15C8F304C01E1510F4E11A01C0EE2450
:1019E00004FF0EC080E390E0B3014FD002FF1BC0A4
:1019F00001FD03C088E790E00EC088E590E00BC0D1
:101A0000802F867881F001FF02C08BE201C080E266
:101A1000F7FC8DE290E0B30138D005C080E390E0A0
:101A2000B30133D09A94D914C8F3DA94F101ED0DCF
:101A3000F11D808190E0B30128D0DD20B1F705C011
:101A400080E290E0B30121D0EA94EE20C9F750CEB5
:101A5000F30166817781CB012B96E2E1BCC0FC01EA
:101A60000590615070400110D8F7809590958E0FC9
:101A70009F1F0895FC016150704001900110D8F73C
:101A8000809590958E0F9F1F08950F931F93CF936E
:101A9000DF938C01EB018B8181FF1BC082FF0DC0A6
:101AA0002E813F818C819D812817390764F4E8815C
:101AB000F9810193F983E88306C0E885F985802FD1
:101AC0000995892B31F48E819F8101969F838E83A6
:101AD00002C00FEF1FEFC801DF91CF911F910F914F
:101AE0000895FA01AA27283051F1203181F1E894B4
:101AF0006F936E7F6E5F7F4F8F4F9F4FAF4FB1E001
:101B00003ED0B4E03CD0670F781F891F9A1FA11DFB
:101B1000680F791F8A1F911DA11D6A0F711D811DFC
:101B2000911DA11D20D009F468943F912AE0269FC1
:101B300011243019305D3193DEF6CF010895462F20
:101B40004770405D4193B3E00FD0C9F7F6CF462F01
:101B50004F70405D4A3318F0495D31FD405241936A
:101B600002D0A9F7EACFB4E0A69597958795779527
:101B70006795BA95C9F700976105710508959B01AE
:101B8000AC010A2E06945795479537952795BA9537
:101B9000C9F7620F731F841F951FA01D08952F9210
:101BA0003F924F925F926F927F928F929F92AF92ED
:101BB000BF92CF92DF92EF92FF920F931F93CF933A
:101BC000DF93CDB7DEB7CA1BDB0B0FB6F894DEBFD1
:101BD0000FBECDBF09942A88398848885F846E84F7
:101BE0007D848C849B84AA84B984C884DF80EE8041
:101BF000FD800C811B81AA81B981CE0FD11D0FB64A
:101C0000F894DEBF0FBECDBFED010895F894FFCF6D
:101C10000083400000010440000001820800000130
:0C1C2000000000000000000000000000B8
:00000001FF
